:100000000C9434000C9449000C9449000C94490061
:100010000C9449000C9449000C9449000C9449003C
:100020000C9449000C9449000C9449000C9449002C
:100030000C9449000C9449000C9449000C9449001C
:100040000C9449000C9449000C9449000C9449000C
:100050000C9449000C9449000C9449000C944900FC
:100060000C9449000C94490011241FBECFEFD8E036
:10007000DEBFCDBF11E0A0E0B1E0E2E0F1E002C000
:1000800005900D92AA31B107D9F70E9453000C9444
:100090007F000C94000092BD81BD60BDFA9AF99A70
:1000A000F999FECF08952FEF83ED90E32150804022
:1000B0009040E1F700C0000080E090E0C0E0D0E0B8
:1000C000FC01E050FF4F60810E944B002196CE0161
:1000D000C931D105A9F780E090E0C0E0D0E011E09F
:1000E00092BD81BD1FBB60B5CE018C599F4F0E9450
:1000F0004B002196CE01C931D10591F7FFCFF8947D
:02010000FFCF2F
:1001020044656E656D65202020202020202020205F
:0A01120020202044656E656D650035
:00000001FF
