:060000000A128A11562EBF
:100CAC00A401A501A601A70183010A128A115E2ED7
:100CBC0083160313860183120313860114300A1260
:100CCC008A1149270A128A116B2E6B2E0A128A116D
:100CDC000028F601F31F732E742E7D2EF209F309F2
:100CEC00F20A0319F30AF6010314F60D7D2EF11F17
:100CFC00802E812E872EF009F109F00A0319F10AD2
:100D0C00872E7108700403198C2E8D2EC32EF501BD
:100D1C000314F50D9D2E01300310F00DF10DFF3E67
:100D2C00031D922E0130F4007408F5079D2EF11F5F
:100D3C00A02EA12E912EA32EA32E71087302031D9B
:100D4C00A92E70087202031CAC2EAD2EB42E7008A6
:100D5C00F2027108031CF303F302B42E01300310EA
:100D6C00F10CF00CFF3E031DB52E0130F502031DF6
:100D7C00C02EC12EA32EC32EC32E7608031DC72E44
:100D8C00CD2EF209F309F20A0319F30ACD2E7308DA
:100D9C00F101F1077208F001F007D42E0800F601FA
:100DAC00F11FD92EDA2EE32EF009F109F00A0319FE
:100DBC00F10AF6010314F60DE32EF31FE62EE72ECF
:100DCC00F12EF209F309F20A0319F30A0130F400C7
:100DDC007408F606F12EF701F80171087004031976
:100DEC00F82EF92E372FF5010314F50D092F0130CC
:100DFC000310F00DF10DFF3E031DFE2E0130F4002B
:100E0C007408F507092FF11F0C2F0D2FFD2E0F2F36
:100E1C000F2F01300310F70DF80DFF3E031D102F9F
:100E2C0071087302031D1C2F70087202031C1F2F04
:100E3C00202F282F7008F2027108031CF303F30211
:100E4C007714282F01300310F10CF00CFF3E031D1A
:100E5C00292F0130F502031D342F352F0F2F372F7B
:100E6C00372F7608031D3B2F412FF709F809F70A96
:100E7C000319F80A412F7808F101F1077708F001FE
:100E8C00F007482F080083120313A8002808F90064
:100E9C00FA010330FF000310F90DFA0DFF0B512F6F
:100EAC0079081C3EA2007A080318013E023EA300FA
:100EBC00FA30F0000030F1002308F301F3072208A8
:100ECC00F201F2070A128A11D5260A128A11710848
:100EDC0083120313A101A1077008A001A007A401AC
:100EEC00A5012508803AFF0080307F02031D802F6A
:100EFC0006302402031C832F842F862FFF2FFF2FF5
:100F0C00831203130614A601A701982F5330F9007E
:100F1C00F90B8E2F013083120313A6070318A70AAF
:100F2C000030A7072708803AF9002108803A790297
:100F3C00031DA22F20082602031CA52FA62F8C2FE1
:100F4C00A72F83120313A901AA01B62F6400013045
:100F5C0083120313A9070318AA0A0030AA07B62F95
:100F6C00FA30F0000030F1002308F301F3072208F7
:100F7C00F201F2070A128A116F260A128A117008FE
:100F8C00F63EF90071080318013EFF3EFA00831289
:100F9C0003132A08803AFB007A08803A7B02031D6F
:100FAC00D92F79082902031CDC2FDD2FAC2F8312DB
:100FBC00031306101930FA00AB30F900F90BE42FCB
:100FCC00FA0BE42FE92F013083120313A407031843
:100FDC00A50A0030A5072508803AFF0080307F0263
:100FEC00031DFA2F06302402031CFD2FFE2F862F23
:040FFC00FF2F0800BB
:00000001FF
