:060000000A128A11122809
:10000800FE00030EF8000408F9000A08FA0083123B
:1000180003137F08FB000A128A11FD2A0A128A11AB
:10002800742B831603138601831203138601831628
:1000380003138711871207160A128A11AF230A12AF
:100048008A11213083120313DC007630DB00DB0BCE
:100058002B28DC0B2B2864000A128A1159210A125A
:100068008A11831203135208BD01BD075108BC0150
:10007800BC073D083C040319422843284728861634
:10008800452845284728831603130711163083127D
:100098000313950097161712DD01DE015A308316F7
:1000A8000313920004308312031392002D3095003D
:1000B8001C3097001211941014100030D400003036
:1000C800D3000030D2000030D1000A128A114D232B
:1000D8000A128A11203083120313DB005B08C40064
:1000E8008C10831603138C140B178B1783120313AE
:1000F8001215E10180288028FF3093008328831699
:100108000313141C8828892883288A288312031338
:100118001308FE3A031D912892288028E1012D2911
:10012800DF01E001C428FF308312031393009C28E9
:1001380083160313141CA128A2289C28A328831221
:1001480003131308DB005B08C500FF309300AC28DD
:1001580083160313141CB128B228AC28B3288312C1
:1001680003131308DB005F08A03E84005B088313B9
:1001780080000130DF070318E00A0030E007C428D8
:100188006008803AFF0080307F02031DCD282030B0
:100198005F02031CD028D1289728D428D428D42833
:1001A80021308312031344020318DB28DC28D428E7
:1001B800DD282030DF000030E0000F29FF308312F7
:1001C80003139300E72883160313141CEC28ED2867
:1001D800E728EE28831203131308DB005B08C50029
:1001E800FF309300F72883160313141CFC28FD28FE
:1001F800F728FE28831203131308DB005F08A03ECC
:1002080084005B08831380000130DF070318E00ACD
:100218000030E0070F296008803AFF0080307F0235
:10022800031D182940305F02031C1B291C29E228E2
:100238001F291F291F292030831203134402031C7E
:10024800262927291F2928290130DB005B08E10717
:100258002D2904306102031C3229332994283429BA
:10026800FF309300372983160313141C3C293D29BA
:1002780037293E29831203131308DB005B08C500E6
:10028800FF309300472983160313141C4C294D296A
:1002980047294E29831203131308DB005B08C500A6
:1002A800802880280A128A1112280030831203132A
:1002B800B7000030B6000030B5000030B400861733
:1002C800D501D6015608803AFF0080307F02031D11
:1002D8006F2914305502031C722973297529902936
:1002E8009029FF300A128A118F230A128A110130CD
:1002F80083120313D5070318D60A0030D607560809
:10030800803AFF0080307F02031D8C29143055028B
:10031800031C8F2990297529831203138613370824
:10032800CA003608C9003508C8003408C700953027
:10033800D3005308CB0000300A128A1159220A123E
:100348008A11831203134808DA01DA074708D9012A
:10035800D907013059065A040319B329B429BA290F
:100368008430D1000030D200582A582A0030CA0000
:100378000030C9000130C800AA30C7008730D30058
:100388005308CB0008300A128A1159220A128A111E
:10039800831203134808DA01DA074708D901D90795
:1003A8002130D4007630D300D30BD829D40BD829E8
:1003B800640083120313D701D8015808803AFF005C
:1003C80080307F02031DEA2905305702031CED29FE
:1003D800EE29F029122A122AFF300A128A118F23D5
:1003E8000A128A1183120313D300D4015308D900C7
:1003F8005408DA000130D7070318D80A0030D807A4
:100408005808803AFF0080307F02031D0D2A05300E
:100418005702031C102A112AF029122A21308312AC
:100428000313D4007630D300D30B182AD40B182A20
:1004380064001E2A003083120313CA000030C9006A
:100448000030C8000030C700FF30D3005308CB008D
:1004580037300A128A1159220A128A11403083123F
:100468000313CA000030C9000030C8000030C700BC
:10047800FF30D3005308CB0069300A128A11592281
:100488000A128A11831203134808DA01DA074708A7
:10049800D901D9075A085904031D532A542A1E2A78
:1004A8008617D101D201582A080083120313D000FD
:1004B80086136230CD006530CC00CC0B612ACD0BA1
:1004C800612A662A83120313500840380A128A11D7
:1004D8008F230A128A11831203134708CC00480895
:1004E800CD004908CE004A08CF0018300310CF0CC1
:1004F800CE0CCD0CCC0CFF3E031D7A2A4C080A12F8
:100508008A118F230A128A11831203134708CC0019
:100518004808CD004908CE004A08CF001030031023
:10052800CF0CCE0CCD0CCC0CFF3E031D932A4C08EF
:100538000A128A118F230A128A1183120313470899
:10054800CC004808CD004908CE004A08CF00083042
:100558000310CF0CCE0CCD0CCC0CFF3E031DAC2AE7
:100568004C080A128A118F230A128A118312031364
:1005780047080A128A118F230A128A118312031359
:100588004B080A128A118F230A128A110A30831221
:100598000313B8000030B900D12AFF300A128A11BB
:1005A8008F230A128A1183120313CC00CD014C0841
:1005B800BC004D08BD00FF303C063D040319E52A88
:1005C800E62AE82AF52AF52A0130B8020030031C89
:1005D800B903B90239083804031DF32AF42AD12AC9
:1005E800F52A3D08C801C8073C08C701C707FC2A07
:1005F80008008B134408A03E840083130008F6000B
:10060800F7017608F0007708F1000130F600760867
:10061800C4077108F7007008F60001300310F70CE2
:10062800F60CFF3E031D122B76181B2B1F2B831273
:1006380003139716222B8312031397127018252B76
:10064800292B8312031317162C2B8312031317124B
:100658007108F7007008F60002300310F70CF60C6A
:10066800FF3E031D312B760895008C104408403A54
:10067800031D3F2B402B412BC4018B177B08FF0028
:100688007A088A0079088400780E8300FE0E7E0EB0
:100698000900831203135408CA005308C9005208FA
:1006A800C8005108C700FF30D5005508CB001230EC
:1006B8000A128A1159220A128A118312031348084E
:1006C800BD01BD074708BC01BC073D083C04031D2C
:1006D8006E2B6F2B4D2B732B732B732B732B0800E7
:1006E800F001F101F201F301F401F5018313203067
:1006F800840046300A128A11BB230A128A11A030DC
:100708008400E0300A128A11BB230A128A1183017D
:100718000A128A11152883120313C600460893008B
:10072800952B83160313141C9A2B9B2B952B9C2B10
:10073800831203131308A02B0800831203139416C3
:10074800141283160313141783120313941114112C
:1007580094141410080083160313861383120313CA
:1007680086170A128A11A1230A128A110800640046
:0E0778008001840A0406031900340406BC2B19
:02400E003AFF77
:00000001FF
