:100000000C949E000C94DC000C94C6000C94C6006A
:100010000C94C6000C94C6000C94C6000C94C60048
:100020000C94C6000C94C6000C94C6000C94C60038
:100030000C94C6000C94C6000C94C6000C94C60028
:100040000C94C6000C94C6000C94C6000C94C60018
:100050000C94C6000C94C6000C94C6000C94C60008
:100060000C94C6000C94C6007F01DA01DA01DA01B3
:10007000DA01AF0193012F018301DA01DA01DA011C
:10008000370187013B013F01DA01DA01DA01DA01C8
:100090006301A70143019B018F01DA01DA01DA0153
:1000A0006F0133014F014701AB01DA01DA01DA01D7
:1000B000DA016B015B019F01DA01DA01DA01DA0191
:1000C00077015F0153017301DA01DA01DA01DA0124
:1000D000DA01DA01670197018B01DA01DA01DA014D
:1000E000DA015701DA014B01DA01DA01DA01DA014A
:1000F000DA017B01A301DA01DA01DA01DA01DA01BE
:10010000DA01DA01DA01DA01DA01DA01DA01DA0117
:10011000B701DA01C301CF01DA01DA01DA01B30173
:10012000DA01BB01C701CB01D301DA01DA01DA013F
:10013000DA01BF01DA01DA01D701370211241FBE4B
:10014000CFEFD8E0DEBFCDBF11E0A0E0B1E0E0E14D
:10015000F5E002C005900D92A231B107D9F721E078
:10016000A2E1B1E001C01D92AA32B207E1F711E0AD
:10017000CCE3D1E004C02297FE010E948202CA3380
:10018000D107C9F70E9403020C9486020C94000068
:100190001092C50087E68093C40086E08093C20079
:1001A00088E18093C1000895E0ECF0E0908195FF34
:1001B000FDCF8093C60008951F920F920FB60F9245
:1001C00011242F933F934F935F936F937F938F935C
:1001D0009F93AF93BF93EF93FF93F89440911701D0
:1001E000E0912401F0912501208123FB882780F9EB
:1001F00090E0042E02C0880F991F0A94E2F7209124
:10020000150130911601822B932B90931601809348
:1002100015014F5F4B3019F040931701E2C0109267
:1002200017019C013595279520931401203F21F457
:1002300081E080931201CEC090911201992319F0B0
:1002400010921201C7C0822F90E0FC017597E93629
:10025000F10508F0AFC0EC5CFF4F0C94800281E622
:1002600080931401A7C082E680931401A3C083E6A3
:10027000809314019FC084E6809314019BC085E69F
:100280008093140197C086E68093140193C087E69B
:10029000809314018FC080EF809314018BC088E697
:1002A0008093140187C08DEF8093140183C089E689
:1002B000809314017FC08AE6809314017BC08BE693
:1002C0008093140177C080E28093140173C08CE6A0
:1002D000809314016FC08DE6809314016BC08EE68D
:1002E0008093140167C08FE68093140163C086EF8A
:1002F000809314015FC08AE0809314015BC081E7A2
:100300008093140157C087E78093140153C088E796
:10031000809314014FC080E7809314014BC082E7A3
:100320008093140147C083E78093140143C08EEF8C
:10033000809314013FC084E7809314013BC085E79C
:100340008093140137C08CEF8093140133C086E78B
:10035000809314012FC089E7809314012BC08AE792
:100360008093140127C080E38093140123C081E3AC
:10037000809314011FC082E3809314011BC083E3A8
:100380008093140117C084E38093140113C085E3A4
:10039000809314010FC086E3809314010BC087E3A0
:1003A0008093140107C088E38093140103C089E39C
:1003B00080931401809114010E94D400E0911A01ED
:1003C000F0911B01808185FB992790F9909590FB16
:1003D00085F9808381E080931301109216011092B9
:1003E00015017894FF91EF91BF91AF919F918F91FB
:1003F0007F916F915F914F913F912F910F900FBE21
:100400000F901F901895E0912001F09121018081BB
:100410008B7F8083E0912201F091230180818B7F8B
:100420008083E0912001F09121018081877F80838A
:10043000E0912001F09121018081877F8083E0910C
:100440001801F0911901808180628083E0911A0186
:10045000F0911B0180818F7D80830E94C800E9E6B6
:10046000F0E08081826080837894E89AFFCF809169
:10047000100190911101909329018093280180919E
:100480000E0190910F019093270180932601809196
:100490000C0190910D01909325018093240180918E
:1004A0000A0190910B019093230180932201809186
:1004B000080190910901909321018093200180917E
:1004C00006019091070190931F0180931E01809176
:1004D00004019091050190931D0180931C0180916E
:1004E00002019091030190931B0180931A01809166
:1004F00000019091010190931901809318010895D2
:10050000EE0FFF1F0590F491E02D0994F894FFCFB2
:1005100024002500270028002A002B00290026009F
:020520002300B6
:00000001FF
