:060000000A128A11612EB4
:100CC200F60183010A128A11BE2EF5000030F300EC
:100CD2000030F2000130F1004D30F000712E712E23
:100CE200FF30F007FF30031CF107FF30031CF2074F
:100CF200FF30031CF3077308720471047004031DB0
:100D0200832E842E712E852E0130F502031D8A2E2C
:100D12008B2E672E8D2E8D2E0430F4007408F60073
:100D22000030F3000030F2000030F1005330F000E8
:100D32009B2E9B2EFF30F007FF30031CF107FF3084
:100D4200031CF207FF30031CF307730872047104DB
:100D52007004031DAD2EAE2E9B2EAF2E0130F60277
:100D6200031DB42EB52E912EB62E0130F502031DB1
:100D7200BB2EBC2E8D2EBD2E0800831603138601BA
:100D8200831203138601831603138701831203134D
:100D920087018316031388018501831203138501DA
:100DA2008801D32E0C308312031386000C30880086
:100DB2000130870001308500FA300A128A11662656
:100DC2000A128A11FA300A128A1166260A128A1146
:100DD200FA300A128A1166260A128A11FA300A12A7
:100DE2008A1166260A128A11FA300A128A116626B6
:100DF2000A128A11FA300A128A1166260A128A1116
:100E02008312031386018801FA300A128A116626B8
:100E12000A128A110C308312031386000C308800E8
:100E2200FA300A128A1166260A128A1183120313F1
:100E320086018801FA300A128A1166260A128A117C
:100E42000C308312031386000C308800FA300A1229
:100E52008A1166260A128A1102308312031386004F
:100E6200023088000230870002308500FA300A1210
:100E72008A1166260A128A11FA300A128A11662625
:100E82000A128A11FA300A128A1166260A128A1185
:100E9200FA300A128A1166260A128A11FA300A12E6
:100EA2008A1166260A128A11FA300A128A116626F5
:100EB2000A128A11FA300A128A1166260A128A1155
:100EC200FA300A128A1166260A128A110130831236
:100ED20003138600013088000C3087000C30850037
:100EE200FA300A128A1166260A128A11FA300A1296
:100EF2008A1166260A128A11FA300A128A116626A5
:100F02000A128A11FA300A128A1166260A128A1104
:100F1200FA300A128A1166260A128A11FA300A1265
:100F22008A1166260A128A11831203138701850128
:100F3200FA300A128A1166260A128A110C308312BA
:100F4200031387000C308500FA300A128A116626D4
:100F52000A128A118312031387018501FA300A12D9
:100F62008A1166260A128A110C3083120313870033
:100F72000C308500FA300A128A1166260A128A118A
:100F82000230831203138600023088000230870089
:100F920002308500FA300A128A1166260A128A1174
:100FA200FA300A128A1166260A128A11FA300A12D5
:100FB2008A1166260A128A11FA300A128A116626E4
:100FC2000A128A11FA300A128A1166260A128A1144
:100FD200FA300A128A1166260A128A11FA300A12A5
:100FE2008A1166260A128A11FA300A128A116626B4
:0E0FF2000A128A11D32ED32E0A128A11002859
:00000001FF
