:100000000C9435000C945D000C945D000C945D0024
:100010000C945D000C945D000C945D000C945D00EC
:100020000C945D000C945D000C945D000C945D00DC
:100030000C945D000C945D000C945D000C945D00CC
:100040000C945D000C945D000C945D000C945D00BC
:100050000C945D000C945D000C945D000C945D00AC
:100060000C945D000C945D00B00111241FBECFEF15
:10007000D8E0DEBFCDBF11E0A0E0B1E0E2E0F4E007
:1000800002C005900D92A231B107D9F723E0A2E199
:10009000B1E001C01D92A632B207E1F710E0CAE656
:1000A000D0E004C02297FE010E94FB01C836D107B0
:1000B000C9F70E9496010C94FF010C9400008EBDBC
:1000C0000DB407FEFDCF8EB508958CB580618CBD53
:1000D0008CB5877F8CBD8CB58B7F8CBD8CB58E7FAE
:1000E0008CBD8CB582608CBD8CB580648CBD089550
:1000F000FF920F931F93CF93DF93D42F152F062FCB
:10010000F72EC22FE0911601F091170190819B7F8D
:1001100090830E945F008F2D0E945F00802F0E94BD
:100120005F00812F0E945F008D2F0E945F008C2F47
:100130000E945F008FEF0E945F00C82F8F3FD1F3B6
:10014000D5E08FEF0E945F00D150D9F72FEF81EEFD
:1001500094E0215080409040E1F700C00000E09121
:100160001601F09117018081846080838C2FDF91CC
:10017000CF911F910F91FF900895EF92FF920F93EF
:100180001F93CF93DF93C62FD72FF82EE92E8A0126
:10019000E0911601F091170120812B7F208381E5EA
:1001A0000E945F008E2D0E945F008F2D0E945F00D5
:1001B0008D2F0E945F008C2F0E945F008FEF0E94A6
:1001C0005F00CBE0D0E08FEF0E945F0080931301CF
:1001D000882321F021972097B1F72CC0C0E1D7E206
:1001E0008FE00E945F00809313018E3F21F02197E2
:1001F0002097B1F71FC0C0E0D0E00F2EF4E5FF2E2E
:10020000F02D8FEF0E945F0080931301C034D10561
:1002100034F4F801EC0FFD1F8083F0921201219657
:10022000C11582E0D80769F78FEF0E945F008FEF5A
:100230000E945F00E0911601F091170180818460B7
:100240008083DF91CF911F910F91FF90EF900895E0
:10025000CF93DF932FEF81EE94E0215080409040C8
:10026000E1F700C00000E0911601F09117018081D4
:1002700084608083CBE0D0E08FEF0E945F00219705
:100280002097D1F72FEF81EE94E0215080409040ED
:10029000E1F700C0000025E940E050E0BA0180E449
:1002A0000E94780080931301813009F0FFCF27E886
:1002B0004AEA51E060E070E088E40E9478008093B0
:1002C000130121E040E050E0BA0187E70E94780086
:1002D00080931301813009F0FFCF21E040E050E02E
:1002E00060E070E489E60E9478008093130182FF49
:1002F0000EC081E0809313012FEF40E050E0BA017F
:1003000081E40E947800809313018111F5CF21E0F0
:1003100040E052E060E070E080E50E947800809369
:1003200013018111FFCFDF91CF9108958CE284B941
:100330000E9465008FE19EE40197F1F700C0000084
:100340000E9428018FE39CE90197F1F700C00000AB
:1003500046E251E060E070E0CB010E94BD00FFCFBB
:1003600080911001909111019093250180932401B7
:1003700080910E0190910F019093230180932201AF
:1003800080910C0190910D019093210180932001A7
:1003900080910A0190910B0190931F0180931E019F
:1003A000809108019091090190931D0180931C0197
:1003B000809106019091070190931B0180931A018F
:1003C0008091040190910501909319018093180187
:1003D000809102019091030190931701809316017F
:1003E0008091000190910101909315018093140177
:1003F0000895EE0FFF1F0590F491E02D0994F894F5
:02040000FFCF2C
:1004020024002500270028002A002B0029002600AE
:020412002300C5
:00000001FF
