:040000009BEF0BF077
:100F00000054656D70203A2000696C6C6567616CF7
:090F1000004532004500690000B3
:100F1A00D382D3909B8ED2901A0E556EF80EE82E7D
:100F2A00FED7552EFCD700D0D38CD38AD388340E63
:100F3A00556EF20EE82EFED7552EFCD7340E556E9E
:100F4A00F20EE82EFED7552EFCD74BEC0EF03AECFB
:100F5A000EF029EC0EF018EC0EF0000E3C6E640E4A
:100F6A003B6E03EC0DF0010E3C6E2C0E3B6EDFEC7B
:100F7A000CF0010E3C6EF40E3B6EBBEC0CF0020E54
:100F8A003C6EBC0E3B6E97EC0CF0000E3C6E0A0EEB
:100F9A003B6E4A0E3D6EE2EC0DF01A0E556EF80EDF
:100FAA00E82EFED7552EFCD700D097969798979A99
:100FBA00B4EC0AF0010E4A6E0F0E4B6E59EC0BF0B0
:100FCA0069EC0EF0000E5A6E030E5A6401D00CD072
:100FDA000A0E5A243B6E3C6A000E3C2276EC0EF056
:100FEA0082EC0EF05A2AF0D7939C939A000E836EE5
:100FFA00000E956E8390000E846E000E856E9782A9
:10100A00000E966E9580909A000E0F015D6F000E8D
:10101A000F015C6F340E556EF20EE82EFED7552E78
:10102A00FCD7340E556EF20EE82EFED7552EFCD79D
:10103A005CEC0EF04BEC0CF0CFEC0DF04BEC0EF040
:10104A004E0E556EEB0EE82EFED7552EFCD700F04D
:10105A004EEC0AF031C083FF9492190E07EC0EF0A1
:10106A00000E5C6E000E5B6E5CBE04D0020E5C5C11
:10107A00D8B00BD0B00E5B24D96E000E5C20DA6EAD
:10108A005BC0DFFF5B4A5C2AEFD7640E07EC0EF009
:10109A00000E3C6E0A0E3B6E530E3D6EE2EC0DF0F6
:1010AA001A0E556EF80EE82EFED7552EFCD700D034
:1010BA00000E3C6E0B0E3B6E610E3D6EE2EC0DF0C7
:1010CA001A0E556EF80EE82EFED7552EFCD700D014
:1010DA00000E3C6E0C0E3B6E690E3D6EE2EC0DF09E
:1010EA001A0E556EF80EE82EFED7552EFCD700D0F4
:1010FA00000E3C6E0D0E3B6E6D0E3D6EE2EC0DF079
:10110A001A0E556EF80EE82EFED7552EFCD700D0D3
:10111A00000E596E000E586E000E576E140E566E63
:10112A00A3EC0DF058505910D8A40CD0000ECAECFC
:10113A000BF03BC01FF03CC020F0000E596E010EB0
:10114A00586E0BD0000E596E000E586E010ECAEC86
:10115A000BF03BC01FF03CC020F08DEC0EF0D00E1F
:10116A00F5EC0DF0010EF5EC0DF088EC0EF01FC059
:10117A0053F020C054F0BAEC0DF0640E07EC0EF0F8
:10118A00CFD744656E656D656C696B000000000021
:10119A000000000000000000000000000000000045
:1011AA000000000000000000000000000000000035
:1011BA000000000000000000000000000000000025
:1011CA000000000000000000000000000000000015
:1011DA000000000000000000000000000000000005
:1011EA0000000000000000000000000000000000F5
:1011FA0000000000000000000000000000000000E5
:10120A0000000000000000000000000000000000D4
:10121A0000000000000000000000000000000000C4
:10122A0000000000000000000000000000000000B4
:10123A0000000000000000000000000000000000A4
:10124A000000000000000000000000000000000094
:10125A000000000000000000000000000000000084
:10126A000000000000000000000000000000000074
:10127A000000000000000000000000000000000064
:10128A000000000000000000000000000000000054
:10129A000000000000000000000000000000000044
:1012AA000000000000000000000000000000000034
:1012BA000000000000000000000000000000000024
:1012CA000000000000000000000000000000000014
:1012DA000000000000000000000000000000000004
:1012EA0000000000000000000000000000000000F4
:1012FA0000000000000000000000000000000000E4
:10130A0000000000000000000000000000000000D3
:10131A0000000000000000000000000000000000C3
:10132A0000000000000000000000000000000000B3
:10133A0000000000000000000000000000000000A3
:10134A000000000000000000000000000000000093
:10135A000000000000000000000000000000000083
:10136A000000000000000000000000000000000073
:10137A000000000000000000000000000000000063
:10138A000000456E020E4318D8A406D0000E3F6E28
:10139A00010E72EC0CF005D0010E3F6E010E72ECDC
:1013AA000CF0010E3F6E020E72EC0CF04550F00B81
:1013BA00266E2644010B3F6E060E72EC0CF0264494
:1013CA00E846030B010B3F6E050E72EC0CF0263853
:1013DA00E842070B010B3F6E040E72EC0CF0263844
:1013EA000F0B010B3F6E030E72EC0CF0150E446EE0
:1013FA00C60EE82EFED7442EFCD700D0000E3F6E54
:10140A00020E72EC0CF0150E446EC60EE82EFED7D4
:10141A00442EFCD700D0010E3F6E020E72EC0CF087
:10142A0045C044F00F0E44164438F00B266E26448D
:10143A00010B3F6E060E72EC0CF02644E846030BD5
:10144A00010B3F6E050E72EC0CF02638E842070BD2
:10145A00010B3F6E040E72EC0CF026380F0B010BD9
:10146A003F6E030E72EC0CF0150E446EC60EE82E9B
:10147A00FED7442EFCD700D0000E3F6E020E72EC4F
:10148A000CF0340E446EF20EE82EFED7442EFCD732
:10149A001200000E3D6E040E3D6401D00CD03D508A
:1014AA00010D180EF324D96E000EF420DA6E000E28
:1014BA00DF6E3D2AF0D785929792340E3B6EF20E7C
:1014CA00E82EFED73B2EFCD7340E3B6EF20EE82EEA
:1014DA00FED73B2EFCD79782560EE82EFED700D0B9
:1014EA0085A2FED785B2FED7000E3E6E040E3E647C
:1014FA0001D030D0070E3F6E3FBE1ED001D02C2A3D
:10150A0085B202D0FCD72A2A85B2FDD72A502C5C94
:10151A00D8B00CD03FC03BF0010E3C6E3B2A02D043
:10152A00D8903C363B2EFCD73C503312000E2C6E22
:10153A00000E2A6E3F06E0D73E50010D180EF32426
:10154A00D96E000EF420DA6E33C0DFFF000E336E60
:10155A003E2ACCD71AC031F018C02DF01200000E66
:10156A003F6E010E72EC0CF0000E3F6E020E72EC32
:10157A000CF0020E436E020EC6EC09F0340E4A6EEF
:10158A00F20EE82EFED74A2EFCD7020E436E280E24
:10159A00C6EC09F0340E4A6EF20EE82EFED74A2E39
:1015AA00FCD7020E436E060EC6EC09F00B0E4A6E0D
:1015BA00620EE82EFED74A2EFCD700D0020E436EEA
:1015CA000C0EC6EC09F00B0E4A6E620EE82EFED720
:1015DA004A2EFCD700D0A3EC0DF00B0E4A6E620E19
:1015EA00E82EFED74A2EFCD700D0020E436E800E9C
:1015FA00C6EC09F0340E4A6EF20EE82EFED74A2ED9
:10160A00FCD7120044C048F045C049F048C03BF03E
:10161A0049C03CF046C03DF047C03EF022EC0CF019
:10162A003BC048F03CC049F0424A432A485049105E
:10163A00D8A4ECD742C0D9FF43C0DAFF000EDF6E50
:10164A004206D8A0430644C03BF045C03CF046C021
:10165A003DF047C03EF048EC0DF03B504A6E44C0A6
:10166A003BF045C03CF046C03DF047C03EF022EC9E
:10167A000CF03BC044F03CC045F0090E4A6402D06D
:10168A00070E4A26300E4A2642C0D9FF43C0DAFF67
:10169A004AC0DFFF4206D8A0430644504510D8A4EA
:1016AA00D2D7424A432A1200060E4C6E300EE82E5A
:1016BA00FED74C2EFCD71CD04AC0F6FF4BC0F7FF12
:1016CA00000EF86E0E0EF76403D00800F55005D030
:1016DA00F6CFE9FFF7CFEAFFEF5089EC0DF04A4A5F
:1016EA004B2A060E4C6E300EE82EFED74C2EFCD737
:1016FA0000D04AC0F6FF4BC0F7FF000EF86E0E0E80
:10170A00F76403D00800F55005D0F6CFE9FFF7CF0C
:10171A00EAFFEF500009D8A4CFD7100E4C6E940EF2
:10172A00E82EFED74C2EFCD700D0120000EE60F057
:10173A00500EEE6AE806FDE100EE01F03A0EEE6A9E
:10174A00E806FDE18C0EF66E110EF76E000EF86ECD
:10175A0000EEB0F012EE00F00900F5CFEEFFE55012
:10176A00E150FAE1E250F8E1240EF66E1D0EF76E32
:10177A00000EF86E0900F5CF5DF00900F5CF5EF0B6
:10178A00000EF86E00018DEF07F0416EC2CF3DF0FA
:10179A00030E3D164144E846FC0B3D10C26E100E86
:1017AA003D6E940EE82EFED73D2EFCD700D0C282A5
:1017BA00C2B2FED7C350C4CF3DF03E6A3DC03EF030
:1017CA003D6A3D103F6E3E50406E9E9C100E3D6E2F
:1017DA00940EE82EFED73D2EFCD700D03FC03BF03A
:1017EA0040C03CF012003D6E070E3E6E3EBE1CD05D
:1017FA003EC03BF03DC03CF03B2A02D0D8903C3280
:10180A003B2EFCD73C30D8A002D0858801D08598E1
:10181A0000D000D08586040EE82EFED78596040EE9
:10182A00E82EFED73E06E2D7858A040EE82EFED7BA
:10183A00859A040EE82EFED71200000E406E000EA6
:10184A003F6E3D503E10D8B41CD0010E416E04D0FC
:10185A00D8903D363E36412A3EAEFAD7D8903F362A
:10186A0040363D503B5C3E503C58D8A005D03D50D8
:10187A003B5E3E503C5A3F80D8903E323D32412E2C
:10188A00EDD73FC03BF040C03CF0120092809282FC
:10189A000F015D810F015D83C29CC29AC298C296F4
:1018AA00C294C08EC084C082C090C09AC088C096BC
:1018BA00C19AC198C1964E0E3B6EEB0EE82EFED72A
:1018CA003B2EFCD700F0C2804E0E3B6EEB0EE82E8C
:1018DA00FED73B2EFCD700F01200426E3F50010BA0
:1018EA003F6E3F50D8B40DD042C040F0010E416E59
:1018FA00402A02D0D8904136402EFCD741502812B7
:10190A000DD042C040F0010E416E402A02D0D8905C
:10191A004136402EFCD74150FF0A28162850F8ECD1
:10192A000BF01200CA943BC03DF03CC03EF03E347E
:10193A003E323D323E343E323D323D500F01486F19
:10194A003C343C303E6E3B303D6E3D30D8A003D037
:10195A000F01478B02D00F01479B3BA003D00F0119
:10196A00478902D00F014799CA841200CA943BC022
:10197A003DF03CC03EF03E343E323D323E343E32D3
:10198A003D323D500F014B6F3C343C303E6E3B3094
:10199A003D6E3D30D8A003D00F014A8B02D00F0113
:1019AA004A9B3BA003D00F014A8902D00F014A99F2
:1019BA00CA841200CA943BC03DF03CC03EF03E349B
:1019CA003E323D323E343E323D323D500F014E6F83
:1019DA003C343C303E6E3B303D6E3D30D8A003D0A7
:1019EA000F014D8B02D00F014D9B3BA003D00F017D
:1019FA004D8902D00F014D99CA841200CA943BC086
:101A0A003DF03CC03EF03E343E323D323E343E3242
:101A1A003D323D500F01516F3C343C303E6E3B30FD
:101A2A003D6E3D30D8A003D00F01508B02D00F017C
:101A3A00509B3BA003D00F01508902D00F0150994F
:101A4A00CA8412004BC051F04CC052F04EAE0CD0BA
:101A5A004BC0D9FF4CC0DAFF2D0EDF6E4B4A4C2A21
:101A6A004D6C4E1ED8B04E2A4BC042F04CC043F0CB
:101A7A004DC044F04EC045F04FC046F050C047F04C
:101A8A0007EC0BF012003D503E10D8B418D0010EEE
:101A9A003F6E04D0D8903D363E363F2A3EAEFAD746
:101AAA003D503B5C3E503C58D8A004D03D503B5E74
:101ABA003E503C5AD8903E323D323F2EF1D73BC081
:101ACA003BF03CC03CF01200486E48C05EF046C095
:101ADA005DF04804D8A408D0020E436E46040F0BEA
:101AEA00800FC6EC09F007D0020E436E46040F0BB6
:101AFA00C00FC6EC09F0060E476E300EE82EFED770
:101B0A00472EFCD700D01200496E010E436E495091
:101B1A00C6EC09F05D2A110E5D18D8A41200010E58
:101B2A005D6E5E2A030E5E18D8A402D0010E5E6EA8
:101B3A005DC046F05E5069EC0DF01200010E5E6E5B
:101B4A00010E5D6E020E436E010EC6EC09F00B0E1D
:101B5A00496E620EE82EFED7492EFCD700D05DC032
:101B6A0046F05E5069EC0DF01200360E4B6E000E18
:101B7A004C6E53C04DF054C04EF0000E506E0A0E1B
:101B8A004F6E27EC0DF0360E4A6E000E4B6E59EC76
:101B9A000BF0120094869488C686C694C692C690A4
:101BAA00270EC86EC68A9E961A0E3B6EF80EE82E4F
:101BBA00FED73B2EFCD700D012003DC073FF7F9E9C
:101BCA007F9C3C50756E3BC074FF7F84550E7E6EC1
:101BDA00AA0E7E6E7F827FB2FED7B79C7F941200D8
:101BEA003B6E9E963BC0C9FFC7A006D0FDD7352ADB
:101BFA00C80E3518D8B402D09EA6F9D79E96000E04
:101C0A00356E12003C6E000E3D6E08D0340E3B6EEF
:101C1A00F20EE82EFED73B2EFCD73D2A3C503D5C07
:101C2A00D8B01200F3D79998939AF90ECB6ECA924C
:101C3A00CA800F0147870F014785010E3C6EF40EDB
:101C4A003B6EDFEC0CF012009996949EF90ECB6E67
:101C5A00CA92CA800F014A870F014A85010E3C6E5B
:101C6A00F40E3B6EBBEC0CF012009994949CF90EA6
:101C7A00CB6ECA92CA800F014D870F014D85010EA6
:101C8A003C6EF40E3B6EDFEC0CF0120099929494C9
:101C9A00F90ECB6ECA92CA800F0150870F01508588
:101CAA00010E3C6EF40E3B6E03EC0DF01200968CA6
:101CBA00969EBA98BA94BA8AB996190E7B6EA68875
:101CCA00A68EA4987A50120098809896AC98AC94F4
:101CDA00AC8AA796190EAF6EAB88AB8E9E98AE50A3
:101CEA0012007F9E7F9C3C50756E3BC074FF7F80C4
:101CFA007FB0FED7B79C735012003B6E9EA8FED7EA
:101D0A003BC0ADFF1200C584C5B4FED79E96120033
:0C1D1A00C580C5B0FED79E9612000101E6
:020000040030CA
:0E00000011881908FF0F80FF0FC00FE00F409E
:00000001FF
