S01C000041746D65676133323870455350436F6D6D616E642E7372656305
S11300000C9435000C945D000C945D000C945D0020
S11300100C945D000C945D000C945D000C945D00E8
S11300200C945D000C945D000C945D000C945D00D8
S11300300C945D000C945D000C945D000C945D00C8
S11300400C945D000C945D000C945D000C945D00B8
S11300500C945D000C945D000C945D000C945D00A8
S11300600C945D000C945D00540211241FBECFEF6C
S1130070D8E0DEBFCDBF11E0A0E0B1E0EAE4F5E0F6
S113008002C005900D92AA33B107D9F721E0AAE383
S1130090B1E001C01D92A73CB207E1F710E0CAE647
S11300A0D0E004C02297FE010E949F02C836D10707
S11300B0C9F70E94E0010C94A3020C940000E091A3
S11300C0B501F091B60180818E7F8083E091B50106
S11300D0F091B601808182608083E091B701F09154
S11300E0B80180818E7F8083E091B701F091B801DF
S11300F08081826080830895E091BF01F091C00106
S1130100A091C501B091C6019C91808190FB83F9B7
S113011080831899FECFE091BF01F091C001A091B6
S1130120C501B091C6019C91808190FB83F98083C5
S11301308FEA99E00197F1F700C00000E091BF0158
S1130140F091C00180818860808395E09A95F1F7F1
S11301500000E091BF01F091C0018081877F80831E
S113016020E030E080E061E070E0189B08C0AB0163
S1130170022E02C0440F551F0A94E2F7842BE0912B
S1130180BF01F091C001908198609083E5E0EA9509
S1130190F1F70000E091BF01F091C0019081977FD9
S11301A09083EFE7F6E03197F1F700C000002F5F8E
S11301B03F4F28303105C9F6E091BF01F091C001ED
S11301C0908198609083F5E0FA95F1F70000E09152
S11301D0BF01F091C0019081977F90830895E091D1
S11301E0B701F091B80190819D7F9083EFE7F6E02D
S11301F03197F1F700C0000020E030E090E0E0919A
S1130200B701F091B801AC01022E02C05595479593
S11302100A94E2F7508140FB51F95083EFE7F6E08E
S11302203197F1F700C000002F5F3F4F28303105B0
S113023031F7E091B701F091B80180818260808349
S11302408FE796E00197F1F700C00000E091B70155
S1130250F091B8018081826080830895CF93DF9309
S11302600E947C00D82F80937901C1E00BC00E94CA
S11302707C00EC2FF0E0E758FE4F8083CF5FDD3049
S113028019F0D82FDA3099F7EC2FF0E0E758FE4F49
S11302901082DF91CF9108951F93CF93DF93C09184
S11302A079018C2F0E94EF008FEC97E00197F1F712
S11302B000C00000D1E012C0ED2FF0E0E758FE4F7F
S11302C01081812F0E94EF008FEC97E00197F1F7E6
S11302D000C00000DF5FCD3019F0C12FCA3061F7D4
S11302E0DF91CF911F91089581E08093C5008FE93C
S11302F08093C40086E08093C20088E18093C100AB
S11303000895E0ECF0E0908195FFFDCF8093C60066
S113031008951F93CF93DF93C09179018C2F0E948E
S113032081018FEC97E00197F1F700C00000D1E064
S113033012C0ED2FF0E0E758FE4F1081812F0E948C
S113034081018FEC97E00197F1F700C00000DF5FB7
S1130350CD3019F0C12FCA3061F7DF91CF911F91D1
S11303600895CF93DF93E7E7F1E0118210821092B2
S1130370730110927401109275011092760187E056
S1130380ACE6B1E0ED0119928A95E9F782E3AAE3BC
S1130390B1E0ED0119928A95E9F7809179018083A2
S11303A0853459F483E1E2E1F1E0A9E7B1E0019099
S11303B00D928A95E1F70E948901DF91CF9108950A
S11303C0E091BD01F091BE01808180628083E09163
S11303D0BD01F091BE01808180618083E091BD0107
S11303E0F091BE0180818F7B8083E091BD01F0910B
S11303F0BE018081886080830E945F000E94740136
S11304008FE39CE90197F1F700C000009FEF24E31C
S11304108CE0915020408040E1F700C00000E09162
S1130420B501F091B601808180628083E091B701CB
S1130430F091B80180818F7D80838EE0E5E2F1E068
S1130440A9E7B1E001900D928A95E1F70E94890134
S1130450C6E0E3E3F1E0A9E7B1E08C2F01900D924F
S11304608A95E1F70E944C010E942E010E948901A5
S11304700E942E010E9489010E94B101E091BF01F6
S1130480F091C001808183FB992790F9909590FBAE
S113049083F980839FEF24E38CE0915020408040D7
S11304A0E1F700C00000D5CF8091100190911101B7
S11304B09093C6018093C50180910E0190910F0124
S11304C09093C4018093C30180910C0190910D011C
S11304D09093C2018093C10180910A0190910B0114
S11304E09093C0018093BF0180910801909109010C
S11304F09093BE018093BD01809106019091070104
S11305009093BC018093BB018091040190910501FB
S11305109093BA018093B9018091020190910301F3
S11305209093B8018093B7018091000190910101EB
S11305309093B6018093B5010895EE0FFF1F0590C7
S10D0540F491E02D0994F894FFCF24
S113054A24002500270028002A002B002900260061
S113055A23004572726F7220696E20636F6D6D613C
S113056A6E640D0A005361696D2053554E454C2043
S10D057A0D0A00432D300D0A0000A5
S9030000FC
