:060000000A128A11992981
:10028C0064008001840A040603190034040647291B
:10029C008316031311145229111855295629522962
:1002AC00831203138C1108008316031311155E2996
:1002BC001119612962295E29831203138C1108001C
:1002CC00F00070088312031393006C298C1D6F29A6
:1002DC0070296C298C110800F00074298312031307
:1002EC000C1E79297A2974297B29700899000C1223
:1002FC000800831603139115832983128C1D8729FB
:10030C00882983298C1113088B2908008316031361
:10031C00911611169129111A942995299129831254
:10032C0003138C11080083132030840035300A121B
:10033C008A1146210A128A1183010A128A11C02ECF
:10034C0083160313941714130930930083120313A9
:10035C009415141194101410941608001930831667
:10036C00031399001815831203139817831603139C
:10037C00181218139816831203131813181607174C
:10038C0087170800FC00FB017C1CCD29CE29D32942
:10039C007908FA007A08FB07D3290310F90D03102A
:1003AC00FC0CFC08031DDB29DC29CA29DD297B0890
:1003BC00DF29080064300A128A1172210A128A118C
:1003CC001A30F400F830F300F30BEA29F40BEA29A5
:1003DC00640072080A128A1172210A128A111A30E8
:1003EC00F400F830F300F30BF929F40BF92964004D
:1003FC0071080A128A1172210A128A111A30F40039
:10040C00F830F300F30B082AF40B082A64000800F8
:10041C000A128A114E210A128A11D0300A128A113C
:10042C0066210A128A1105300A128A1166210A12F3
:10043C008A110A128A115A210A128A110A128A1175
:10044C004E210A128A11D1300A128A1166210A121F
:10045C008A110A128A117F210A128A11831203133C
:10046C00B5003508B4000A30B5003508F900340879
:10047C00B60004300310B60CFF3E031D402A3608AC
:10048C000A128A11C8210A128A1183120313B700A7
:10049C0034080F393707B8003808B4000A128A112B
:1004AC008C210A128A110A128A115A210A128A11F3
:1004BC00831203133408622A08000A128A114E218F
:1004CC000A128A11D0300A128A1166210A128A1174
:1004DC0004300A128A1166210A128A110A128A1130
:1004EC005A210A128A110A128A114E210A128A11F1
:1004FC00D1300A128A1166210A128A110A128A1143
:10050C007F210A128A1183120313B5003508B40037
:10051C000A30B5003508F9003408B6000430031071
:10052C00B60CFF3E031D952A36080A128A11C82103
:10053C000A128A1183120313B70034080F393707D4
:10054C00B8003808B4000A128A118C210A128A11D8
:10055C000A128A115A210A128A11831203133408BF
:10056C00B72A08000A128A114E210A128A11D030B9
:10057C000A128A1166210A128A1106300A128A118D
:10058C0066210A128A110A128A115A210A128A1138
:10059C000A128A114E210A128A11D1300A128A11BA
:1005AC0066210A128A110A128A117F210A128A11F3
:1005BC0083120313B5003508B4000A30B5003508B2
:1005CC00F9003408B60004300310B60CFF3E031DCE
:1005DC00EA2A36080A128A11C8210A128A118312D1
:1005EC000313B70034080F393707B8003808B400C4
:1005FC000A128A118C210A128A110A128A115A21A2
:10060C000A128A118312031334080C2B08000A12E5
:10061C008A114E210A128A11D0300A128A116621CF
:10062C000A128A1100300A128A1166210A128A11E2
:10063C000A128A115A210A128A110A128A114E219F
:10064C000A128A11D1300A128A1166210A128A11F1
:10065C000A128A117F210A128A1183120313B7001E
:10066C003708B4000A30B7003708F9003408B8006E
:10067C0004300310B80CFF3E031D3F2B38080A1240
:10068C008A11C8210A128A1183120313B900340883
:10069C000F393907BA003A08B4000A128A118C21B2
:1006AC000A128A110A128A115A210A128A11831209
:1006BC0003133408B700B8013708B5003808B60082
:1006CC00672B08000A128A114E210A128A11D030A7
:1006DC000A128A1166210A128A1101300A128A1131
:1006EC0066210A128A110A128A115A210A128A11D7
:1006FC000A128A114E210A128A11D1300A128A1159
:10070C0066210A128A110A128A117F210A128A1191
:10071C0083120313B7003708B4000A30B700370848
:10072C00F9003408B80004300310B80CFF3E031D68
:10073C009A2B38080A128A11C8210A128A118312BC
:10074C000313B90034080F393907BA003A08B4005A
:10075C000A128A118C210A128A110A128A115A2140
:10076C000A128A11831203133408B700B801370830
:10077C00B5003808B600C22B08000A128A114E21A7
:10078C000A128A11D0300A128A1166210A128A11B1
:10079C0002300A128A1166210A128A110A128A116F
:1007AC005A210A128A110A128A114E210A128A112E
:1007BC00D1300A128A1166210A128A110A128A1180
:1007CC007F210A128A1183120313B7003708B40071
:1007DC000A30B7003708F9003408B80004300310A9
:1007EC00B80CFF3E031DF52B38080A128A11C821DC
:1007FC000A128A1183120313B90034080F3939070E
:10080C00BA003A08B4000A128A118C210A128A1111
:10081C000A128A115A210A128A11831203133408FC
:10082C00B700B8013708B5003808B6001D2C080011
:10083C00FD000A128A114E210A128A11D0300A12B6
:10084C008A1166210A128A1101300A128A11662154
:10085C000A128A110A30F0000030F1007D08831270
:10086C000313B500B6013508F2003608F3000A127E
:10087C008A114C260A128A11700883120313B700CE
:10088C0004300310B70DFF3E031D472C0A30B8008F
:10089C003808F9007D08B900BA013908F2003A08A5
:1008AC00F3000A30F0000030F1000A128A114C26D5
:1008BC000A128A1170080A128A11C8210A128A11A6
:1008CC00FF3A013E7D07831203133704BB003B083C
:1008DC00FD007D080A128A1166210A128A110A1279
:1008EC008A115A210A128A110800FD000A128A1173
:1008FC004E210A128A11D0300A128A1166210A126C
:10090C008A1102300A128A1166210A128A110A30DF
:10091C00F0000030F1007D0883120313B500B6011E
:10092C003508F2003608F3000A128A114C260A1216
:10093C008A11700883120313B70004300310B70D2B
:10094C00FF3E031DA42C0A30B8003808F9007D08BE
:10095C00B900BA013908F2003A08F3000A30F00085
:10096C000030F1000A128A114C260A128A11700802
:10097C000A128A11C8210A128A11FF3A013E7D0718
:10098C00831203133704BB003B08FD007D080A12D9
:10099C008A1166210A128A110A128A115A210A1224
:1009AC008A110800FD000A128A114E210A128A11BE
:1009BC00D0300A128A1166210A128A1100300A12EA
:1009CC008A1166210A128A110A30F0000030F100F7
:1009DC007D0883120313B500B6013508F200360802
:1009EC00F3000A128A114C260A128A11700883121B
:1009FC000313B70004300310B70DFF3E031D012D88
:100A0C000A30B8003808F9007D08B900BA01390875
:100A1C00F2003A08F3000A30F0000030F1000A123C
:100A2C008A114C260A128A1170080A128A11C821DE
:100A3C000A128A11FF3A013E7D0783120313370411
:100A4C00BB003B08FD007D080A128A1166210A12C0
:100A5C008A110A128A115A210A128A110800FD0001
:100A6C000A128A114E210A128A11D0300A128A11E6
:100A7C0066210A128A1104300A128A1166210A129E
:100A8C008A110A30F0000030F1007D088312031344
:100A9C00B500B6013508F2003608F3000A128A11C7
:100AAC004C260A128A11700883120313B700043003
:100ABC000310B70DFF3E031D5E2D0A30B800380839
:100ACC00F9007D08B900BA013908F2003A08F300C0
:100ADC000A30F0000030F1000A128A114C260A127A
:100AEC008A1170080A128A11C8210A128A11FF3A57
:100AFC00013E7D07831203133704BB003B08FD0046
:100B0C007D080A128A1166210A128A110A128A11A8
:100B1C005A210A128A110800FD000A128A114E216C
:100B2C000A128A11D0300A128A1166210A128A110D
:100B3C0005300A128A1166210A128A110A30F00055
:100B4C000030F1007D0883120313B500B60135089F
:100B5C00F2003608F3000A128A114C260A128A1186
:100B6C00700883120313B70004300310B70DFF3E57
:100B7C00031DBB2D0A30B8003808F9007D08B900F8
:100B8C00BA013908F2003A08F3000A30F0000030DC
:100B9C00F1000A128A114C260A128A1170080A12E4
:100BAC008A11C8210A128A11FF3A013E7D0783126D
:100BBC0003133704BB003B08FD007D080A128A11A1
:100BCC0066210A128A110A128A115A210A128A11F2
:100BDC000800FD000A128A114E210A128A11D03027
:100BEC000A128A1166210A128A1106300A128A1117
:100BFC0066210A128A110A30F0000030F1007D08DB
:100C0C0083120313B500B6013508F2003608F30061
:100C1C000A128A114C260A128A11700883120313C5
:100C2C00B70004300310B70DFF3E031D182E0A3019
:100C3C00B8003808F9007D08B900BA013908F2008B
:100C4C003A08F3000A30F0000030F1000A128A1161
:100C5C004C260A128A1170080A128A11C8210A122B
:100C6C008A11FF3A013E7D07831203133704BB0040
:100C7C003B08FD007D080A128A1166210A128A11AE
:100C8C000A128A115A210A128A110800F601F11F60
:100C9C00502E512E5A2EF009F109F00A0319F10ABF
:100CAC00F6010314F60D5A2EF31F5D2E5E2E682EE0
:100CBC00F209F309F20A0319F30A0130F40074087B
:100CCC00F606682EF701F8017108700403196F2EEF
:100CDC00702EAE2EF5010314F50D802E013003108D
:100CEC00F00DF10DFF3E031D752E0130F40074085C
:100CFC00F507802EF11F832E842E742E862E862EC1
:100D0C0001300310F70DF80DFF3E031D872E7108FF
:100D1C007302031D932E70087202031C962E972EDD
:100D2C009F2E7008F2027108031CF303F302771470
:100D3C009F2E01300310F10CF00CFF3E031DA02E72
:100D4C000130F502031DAB2EAC2E862EAE2EAE2E30
:100D5C007608031DB22EB82EF709F809F70A031905
:100D6C00F80AB82E7808F101F1077708F001F007BE
:100D7C00BF2E0800831603130610831203130614E8
:100D8C000A128A11B4210A128A11823083120313B7
:100D9C00BD00DD30BC00BC0BD12EBD0BD12ED62E30
:100DAC008316031387150716831203138711071273
:100DBC000A128A11A6210A128A1182308312031395
:100DCC00BD00DD30BC00BC0BE92EBD0BE92EEE2EB8
:100DDC004D30F1000030F2000A128A11E0210A12A3
:100DEC008A117430F1000030F2000A128A11E021ED
:100DFC000A128A115430F1000030F2000A128A11E2
:100E0C00E0210A128A1117300A128A11D8240A1208
:100E1C008A1117300A128A111E240A128A111730ED
:100E2C000A128A117B240A128A1117300A128A11AB
:100E3C0035250A128A110C300A128A1192250A12CF
:100E4C008A1117300A128A11EF250A128A115430AE
:100E5C00F1000030F2000A128A11E0210A128A1104
:100E6C000A128A1168230A128A1183120313360894
:100E7C00AB01AB073508AA01AA072B08F201F20750
:100E8C002A08F101F1070A128A11E0210A128A11CB
:100E9C000A128A11C3230A128A1183120313360809
:100EAC00AF01AF073508AE01AE072F08F201F2070C
:100EBC002E08F101F1070A128A11E0210A128A1197
:100ECC000A128A1163220A128A1183120313BC00BC
:100EDC00BD013C08AC003D08AD000A128A110E227F
:100EEC000A128A1183120313BC00BD013C08A8002E
:100EFC003D08A9000A128A11B8220A128A1183121B
:100F0C000313BC00BD013C08B2003D08B3008E2F9A
:100F1C0001308312031386060A128A110D230A125A
:100F2C008A11831203133608B101B1073508B001D9
:100F3C00B0073108F201F2073008F101F1070A128B
:100F4C008A11E0210A128A1183120313310830042A
:100F5C00031DB12FB22FEC2F0A128A1168230A122B
:100F6C008A11831203133608AB01AB073508AA01AB
:100F7C00AA072B08F201F2072A08F101F1070A125D
:100F8C008A11E0210A128A11831203132B082A04F6
:100F9C00031DD12FD22FEC2F0A128A11C3230A1250
:100FAC008A11831203133608AF01AF073508AE015F
:100FBC00AE072F08F201F2072E08F101F1070A1211
:100FCC008A11E0210A128A11EC2FEC2F05308312C2
:100FDC000313BE009130BD00D230BC00BC0BF42F0B
:100FEC00BD0BF42FBE0BF42FFB2F8E2F8E2F0A125E
:040FFC008A1100282E
:00000001FF
