:0400000080315328D0
:100008007E14803120007F08FB00111C3228181054
:100018000130FA007A08B80714303806031D26287C
:10002800B8010130FA007A08FC073D307C06031D50
:10003800222818100830FA007A08FD007C08803160
:10004800702080313C3020009700AF3096001110AE
:1000580008307D0603194E2818144E280B1C4E280C
:1000680008307D06031D43280930FA007A08FD0090
:100078003C309700AF309600FC0118144C2809302A
:100088007D06031D4C280830FA007A08FD00181078
:10009800270093017B082000FF007E1009008031B3
:1000A8005528FC01B201B301B401B501B601B7018D
:1000B800B80181316C218031FD005C3084008130D1
:1000C800850020308600003087000A3081316621A3
:1000D8007E1020008031CB28F700F9010530790225
:1000E800031883287908323E860087018101013090
:1000F800F5007508F90705307902031C76283D30AC
:100108007702031C8B283C30F5007508F7000C308B
:10011800F5007508F600F8017608F5007508F00096
:10012800770881312521803178020318A6287808BC
:10013800323E860087018101810A0130F500750889
:10014800F80790282000321CAC2820000C14AE2898
:1001580020000C10331CB32820008C14B528200074
:100168008C10341CBA2820000C15BC2820000C1157
:10017800351CC12820000C16C32820000C12361C80
:10018800C82820008C16080020008C1208002300C4
:100198008C0121008C0199131917991619169911B8
:1001A8009914191027009201910191119215783034
:1001B8008131462180312000960197019813181744
:1001C80098161816111099133C309700AF30960006
:1001D800210011146430813146218031063020001D
:1001E800B0001330AF00B130AE00AE0BF928AF0B42
:1001F800F928B00BF928003220008C0121000C10DE
:1002080064308131462180310B17270093018B150B
:100218002000B1018B1708307D06031D16292030F8
:1002280020008C060B302000B0002630AF0066306E
:10023800AE00AE0B1D29AF0B1D29B00B1D290032D6
:100248000F29F200F401700803194429F301F30A95
:10025800F01B35290310F00D0130F1007108F30788
:100268002C290310F40D70087202031C3F29700832
:10027800F20274140310F00C0130F302031D352947
:10028800740808002000AC00AD012D082C060319E5
:1002980008000330AB009730AA00AA0B5129AB0B1A
:1002A8005129003201302000AA002A08AD07492947
:1002B8004034F93424343034193412340234F834E4
:1002C80000341034FE0012001E00FE0B67290034B3
:0202D8000834E8
:020000040001F9
:04000E00A4D9FFDC96
:00000001FF
