:100000008A11452BFF1B0C2883137F1883170008C8
:10001000840A0319FF0A080000308A000408840AD1
:100020008207003449346E3469347434693461347D
:100030006C3469347A3469346E34673420344E3425
:10004000523446342E342E342E340A3400340034E4
:100050004E3452344634203469346E346934743446
:10006000693461346C3469347A34653464342E34E0
:100070002E342E340A34003400340A3453347434A9
:10008000613474347534733420343A3420340A348F
:100090000034003452346534633465346934763462
:1000A0006534643420343A342034003444346534C4
:1000B0006E3465346D3465340A34003400344334AE
:1000C0004F344E34463449344734203400340034FD
:1005FE0064008001840A0406031900340406002BEB
:10060E003F3406345B344F3466346D347D340734F6
:10061E007F346F340534F000700883120313990091
:10062E00182B83160313981C1D2B1E2B182B1F2BF8
:10063E0008007E088A007F0882008A1120238A1112
:10064E008000840A04087D0603190034FF0A03198A
:10065E00FE0A242B83160313061387130616831222
:10066E000313141283160313141794138312031314
:10067E009411141194101410941608008313203042
:10068E0084003F308A11FF228A114A30FD00033068
:10069E00FE000730FF003F3084008A1124238A11A8
:1006AE0083018A115C2E83160313181518129B11E1
:1006BE001930990098168312031318160C128C1207
:1006CE00831603138C160B178312031398178B17AD
:1006DE000800F0007008831203139300762B831624
:1006EE000313141C7B2B7C2B762B7E2B7E2B8312E1
:1006FE008C1D822B832B7E2B8C111308862B0800CE
:10070E00F501A62B75087107840072080318720A8A
:10071E0083120313FF008A1102208A118A111223F9
:10072E008A110430F400E430F300F30B9C2BF40B2D
:10073E009C2B64000130F3007308F507A62B750897
:10074E007107840072080318720A83120313FF00E4
:10075E008A1102208A110038031DB62BB72B892B64
:10076E00B82B0800F6007308031DBE2BC22BF30135
:10077E000314F30DC42BF301C42B0130F6027308DE
:10078E00031DCA2BDA2B0130F400760AD02B03108E
:10079E00F40DFF3E031DCE2B7408F5007508831271
:1007AE000313B204EB2B0130F400760AE02B031096
:1007BE00F40DFF3E031DDE2B7408FF3AF50075089D
:1007CE0083120313B205EB2B32088A1136248A11D9
:1007DE000800FA000730F8007808FB00FB1FF82B22
:1007EE00F92BFB2B242C242C7708F8007B0A012CE8
:1007FE000310F80CFF3E031DFF2B78080139F9009A
:10080E007908F30002308A11B9238A110E2CF301F4
:10081E000314F30D01308A11B9238A11162CF3013A
:10082E0001308A11B9238A11FF30F8007808FB07CE
:10083E00FB1F222C232CFB2B242CF3010314F30D72
:10084E007A088A11B9238A110430F800F80B2D2C7E
:10085E00302CF3017A088A11B9238A110800F100AD
:10086E000730F0007008F200F21F3E2C3F2C412C96
:10087E00712C712C7108F000720A472C0310F00CC9
:10088E00FF3E031D452C701C4D2C4E2C582C031373
:10089E008312871187150430F000F00B542C572C5F
:1008AE00692C8312031387110430F000F00B5D2CBA
:1008BE00602C8312031387150930F000F00B652CA2
:1008CE00682C692CFF30F0007008F207F21F702CB4
:1008DE00712C412C8312031387114230F000F00B60
:1008EE00762C8312031387156330F000F00B7D2CEA
:1008FE00802C0800FC000A30F0000030F1007C086B
:10090E0083120313CA00CB014A08F2004B08F3000E
:10091E008A113D258A1170083F3E84008313000919
:10092E0083120313CC004C08FD004908023A031D44
:10093E00A12CA22CA42CFD17A42C7D08CA004A08B9
:10094E00F70003308A11F0238A110A30F0000030CC
:10095E00F1007C0883120313CA00CB014A08F2008F
:10096E004B08F3008A11D7248A1170083F3E840089
:10097E008313000983120313CC004C08FD004908B1
:10098E00033A031DCB2CCC2CCE2CFD17CE2C7D0880
:10099E00CA004A08F70004308A11F0238A110800B1
:1009AE00F601F31FDB2CDC2CE52CF209F309F20A1D
:1009BE000319F30AF6010314F60DE52CF11FE82CCA
:1009CE00E92CEF2CF009F109F00A0319F10AEF2CCA
:1009DE00710870040319F42CF52C2B2DF50103145A
:1009EE00F50D052D01300310F00DF10DFF3E031D29
:1009FE00FA2C0130F4007408F507052DF11F082DAF
:100A0E00092DF92C0B2D0B2D71087302031D112DC1
:100A1E0070087202031C142D152D1C2D7008F20285
:100A2E007108031CF303F3021C2D01300310F10CAB
:100A3E00F00CFF3E031D1D2D0130F502031D282D68
:100A4E00292D0B2D2B2D2B2D7608031D2F2D352DFE
:100A5E00F209F309F20A0319F30A352D7308F101AD
:100A6E00F1077208F001F0073C2D0800F601F11FA6
:100A7E00412D422D4B2DF009F109F00A0319F10A0F
:100A8E00F6010314F60D4B2DF31F4E2D4F2D592D40
:100A9E00F209F309F20A0319F30A0130F40074089B
:100AAE00F606592DF701F801710870040319602D2F
:100ABE00612D9F2DF5010314F50D712D01300310DD
:100ACE00F00DF10DFF3E031D662D0130F40074088C
:100ADE00F507712DF11F742D752D652D772D772D41
:100AEE0001300310F70DF80DFF3E031D782D710830
:100AFE007302031D842D70087202031C872D882D2E
:100B0E00902D7008F2027108031CF303F3027714A0
:100B1E00902D01300310F10CF00CFF3E031D912DB2
:100B2E000130F502031D9C2D9D2D772D9F2D9F2DA0
:100B3E007608031DA32DA92DF709F809F70A031945
:100B4E00F80AA92D7808F101F1077708F001F007EE
:100B5E00B02D080083120313071007170330F1009E
:100B6E00F10BB72D83120313071320308A11702354
:100B7E008A110B308A1170238A1183120313071402
:100B8E00C82D871ACB2DCC2DC82D07170330F10099
:100B9E00F10BCF2D83120313071307308A11702325
:100BAE008A1100308A1170238A11F1007108F20047
:100BBE008312031307170330F100F10BE42D831298
:100BCE000313071327308A1170238A1170308A118C
:100BDE0070238A11F32D5B2E831203130717033034
:100BEE00F100F10BF82D83120313071361308A11F4
:100BFE0070238A11F301F4017408803AFF008030EB
:100C0E007F02031D0C2E0A307302031C0F2E102EB2
:100C1E00122E302E302E00308A1170238A11F100E0
:100C2E007308353E84007108831380000130F3078A
:100C3E000318F40A0030F4077408803AFF0080307D
:100C4E007F02031D2C2E0A307302031C2F2E302E12
:100C5E00122E8312031307170330F100F10B352EFA
:100C6E00831203130713E2308A1170238A11831241
:100C7E00031307170330F100F10B432E83120313F6
:100C8E00071327308A1170238A1140308A1170237E
:100C9E008A118312031307170330F100F10B552E3F
:100CAE008312031307135B2E0800831203179E0192
:100CBE009F01831603130F178F160F120F1487162B
:100CCE0007130712831203130712071387018316E4
:100CDE000313861386168711831203138711831647
:100CEE00031307108312031307108A1131238A117D
:100CFE00C33083120313CE00CD30CD00CD0B852E25
:100D0E00CE0B852E8A115A238A111A3083120313A1
:100D1E00CE00F830CD00CD0B922ECE0B922E64006D
:100D2E000130F1008030F2008A1187238A118A1176
:100D3E0017278A111730F1008030F2008A118723AD
:100D4E008A110D3083120313CE00FB30CD00CD0B74
:100D5E00AE2ECE0BAE2EB32E533083120313CD0018
:100D6E004D08A0006130CD004D08A1006930CD00C6
:100D7E004D08A2006D30CD004D08A3002030CD00EF
:100D8E004D08A4005330CD004D08A5005530CD00C0
:100D9E004D08A6004E30CD004D08A7004530F1009D
:100DAE008030F2008A1187238A11831203130710F1
:100DBE000C308A1181248A1183120313CF01E72E7E
:100DCE008A11B1258A113930F1008030F2008A1172
:100DDE0087238A113530F1000030F2008A11872303
:100DEE008A11831203133508313A031DFF2E002F8B
:100DFE00022F0716042F0712042F36088A1181249A
:100E0E008A110D3083120313CE00FB30CD00CD0BB3
:100E1E000E2FCE0B0E2F132FE72EE72E8A11002842
:100E2E0083120313071007170330F100F10B1D2F68
:100E3E0083120313071320308A1170238A110B308B
:100E4E008A1170238A110330F2009730F100F10BF2
:100E5E002E2FF20B2E2F332F83120313071703306F
:100E6E00F100F10B382F83120313071321308A116F
:100E7E0070238A1101308A1170238A118312031391
:100E8E0007170330F100F10B4A2F831203130713D8
:100E9E0022308A1170238A1101308A1170238A112F
:100EAE008312031307170330F100F10B5C2F83122B
:100EBE000313071323308A1170238A1103308A110A
:100ECE0070238A118312031307170330F100F10BFD
:100EDE006E2F83120313071324308A1170238A1185
:100EEE003F308A1170238A118312031307170330C0
:100EFE00F100F10B802F83120313071325308A1193
:100F0E0070238A1102308A1170238A1183120313FF
:100F1E0007170330F100F10B922F831203130713FF
:100F2E0026308A1170238A1126308A1170238A1175
:100F3E008312031307170330F100F10BA42F831252
:100F4E00031307132A308A1170238A11E7308A118E
:100F5E0070238A11E7308A1170238A11E7308A11C3
:100F6E0070238A11E7308A1170238A11E7308A11B3
:100F7E0070238A118312031307170330F100F10B4C
:100F8E00C62F83120313071330308A1170238A1170
:100F9E00E7308A1170238A11E7308A1170238A1183
:100FAE00E7308A1170238A11E7308A1170238A1173
:100FBE00E7308A1170238A11831203130717033047
:100FCE00F100F10BE82F83120313071331308A114E
:100FDE0070238A110A308A1170238A118312031327
:100FEE0007170330F100F10BFA2F831203130713C7
:020FFE000800E9
:00000001FF
