:08000000803102288731DE2F58
:100E1A004E34693473346134203421008C160C1238
:100E2A0020000C160800F200F30173087206031979
:100E3A0008000330F1009730F000F00B222FF10B7D
:100E4A00222F00320130F0007008F3071A2FF30046
:100E5A00F40174087306031908000230F200043022
:100E6A00F100BA30F000F00B382FF10B382FF20BEB
:100E7A00382F00000130F0007008F4072E2F2300ED
:100E8A008C01210099131917991619169911991499
:100E9A0019100C1120000C1578308731182787316A
:100EAA0021000C10873112278731643087311827C7
:100EBA008731F601F70176088731762787310130C5
:100ECA00F6070030F73D8731AA278731F500750804
:100EDA002000AA0001308C060A3087312C2787317E
:100EEA00602FF10020000C124130F000F00B7B2F34
:100EFA000032F2010830720603199D2F7108F000C2
:100F0A00720A882FF036890B872F701C8F2F2000CA
:100F1A000C16912F20000C123D30F000F00B932F8D
:100F2A000130F0007008F20708307206031D832FA3
:100F3A0020000C164130F000F00BA12F0032413096
:100F4A00F000F00BA62F00320800F20120008C1AE4
:100F5A00AB2F6330F000F00BB02F0032F3010830F2
:100F6A0073060319D22F003020008C1A0130F000CA
:100F7A00730AC02FF035890BBF2F7008F100710872
:100F8A00F2043930F000F00BC82F0130F00070087D
:100F9A00F30708307306031DB82F4130F000F00B39
:100FAA00D42F00324130F000F00BD92F00327208F2
:100FBA000800F801F901FA01FB01FC01FD01A00199
:100FCA00A101A201A301A401A501A601A701A801EB
:100FDA00A901AA010D308400873085001200AB00F8
:100FEA001200AC001200AD001200AE001200AF00F9
:060FFA0020008731442FA6
:020000040001F9
:04000E00A4D9FFDC96
:00000001FF
