:060000000A128A11122809
:10000800FE00030EFA000408FB000A08FC00831235
:1000180003137F08FD000A128A1115280A128A1193
:100028006F287508F8007807203E840015088313A8
:100038008000840A160880000130F8007808F50767
:100048000C1175080A3A031D2A282B284528F501A2
:10005800831603130C11831203132803FF3A2A078C
:100068000A128A1191200A128A11A330F900553018
:10007800F800F80B3D28F90B3D28831603130C15DF
:1000880045287D088312FF007C088A007B088400CD
:100098007A0E8300FE0E7E0E09000A128A11832052
:1000A8000A128A1183160313860183120313860129
:1000B80017158E018F0190108B170B1783160313DA
:1000C8000C15831203139012101210146B286B284E
:1000D8000A128A111228F001F101F201F301F40168
:1000E800F501F60183132030840034300A128A1196
:1000F8009D200A128A1183010A128A115128193087
:1001080083160313990018151812181398168312DA
:1001180003131813181698170800F700932883126A
:1001280003130C1E9828992893289A287708990071
:10013800080064008001840A0406031900340406D8
:020148009E28EF
:00000001FF
