:100000000C9435000C945D000C945D000C945D0024
:100010000C945D000C945D000C945D000C945D00EC
:100020000C945D000C945D000C945D000C945D00DC
:100030000C945D000C945D000C945D000C945D00CC
:100040000C945D000C945D000C945D000C945D00BC
:100050000C945D000C945D000C945D000C945D00AC
:100060000C945D000C945D00A80111241FBECFEF1D
:10007000D8E0DEBFCDBF11E0A0E0B1E0E2EFF3E0F9
:1000800002C005900D92A231B107D9F721E0A2E19B
:10009000B1E001C01D92A133B207E1F710E0CAE65A
:1000A000D0E004C02297FE010E94F301C836D107B8
:1000B000C9F70E9466010C94F7010C94000088E4D3
:1000C0008093B80084E08093BC00E9EBF0E080818D
:1000D00080838081808308958093BB0084E880932F
:1000E000BC00ECEBF0E080818823ECF78091BB0052
:1000F000089584EA8093BC00ECEBF0E080818823D3
:10010000ECF7089584E98093BC00ECEBF0E080818B
:1001100084FDFDCF08950E94790080ED0E946C005F
:1001200080E00E946C000E9482000E94790081EDB4
:100130000E946C008FEF0E946C00982F9695969508
:1001400096959E71292F220F220F920F8F70980F74
:1001500090931E010E94820080911E0190E00895FC
:100160000E94790080ED0E946C0081E00E946C008A
:100170000E9482000E94790081ED0E946C008FEF46
:100180000E946C00982F9695969596959E71292FB2
:10019000220F220F920F8F70980F90931E010E94D2
:1001A000820080911E0190E008950E94790080ED08
:1001B0000E946C0082E00E946C000E9482000E94FB
:1001C000790081ED0E946C008FEF0E946C00982FE7
:1001D0009695969596959E71292F220F220F920F34
:1001E0008F70980F90931E010E94820080911E01D3
:1001F00090E008950E94790080ED0E946C0085E0F7
:100200000E946C000E9482000E94790081ED0E9491
:100210006C008FEF0E946C00982F9695969596959E
:100220009E71292F220F220F920F8F70980F90939B
:100230001E010E94820080911E0108950E94790093
:1002400080ED0E946C0084E00E946C000E9482009D
:100250000E94790081ED0E946C008FEF0E946C007B
:10026000982F9695969596959E71292F220F220F7D
:10027000920F8F70980F90931E010E9482008091C0
:100280001E0108950E94790080ED0E946C0086E0B6
:100290000E946C000E9482000E94790081ED0E9401
:1002A0006C008FEF0E946C00982F9695969596950E
:1002B0009E71292F220F220F920F8F70980F90930B
:1002C0001E010E94820080911E0108950E945F001D
:1002D0002FEF81EE94E0215080409040E1F700C084
:1002E00000000E948B0090931301809312010E94E2
:1002F000B00090931701809316010E94D50090934F
:100300001501809314010E94420190E090931B011B
:1003100080931A010E94FA0090E090931901809353
:1003200018010E941E0190E090931D0180931C0112
:100330000E948B0090931301809312012FEF81EFA5
:100340009BE2215080409040E1F700C00000F0CFD8
:1003500080911001909111019093300180932F01B1
:1003600080910E0190910F0190932E0180932D01A9
:1003700080910C0190910D0190932C0180932B01A1
:1003800080910A0190910B0190932A018093290199
:100390008091080190910901909328018093270191
:1003A0008091060190910701909326018093250189
:1003B0008091040190910501909324018093230181
:1003C0008091020190910301909322018093210179
:1003D00080910001909101019093200180931F0171
:1003E0000895EE0FFF1F0590F491E02D0994F89405
:0203F000FFCF3D
:1003F20024002500270028002A002B0029002600BF
:020402002300D5
:00000001FF
