:04000000EDEF0BF025
:10100000004E6973612026205361696D00696C6C24
:0D1010006567616C00453200450069000015
:10101E00640ECBEC0CF08282000E3B6E000E3A6E2C
:10102E003BBE06D03B500AE10B0E3A5CD8B006D060
:10103E00FF0E0BEC0DF03A4A3B2AF2D7640ECBECC6
:10104E000CF0000E2B6E000E2C6E000E2D6E000E90
:10105E002E6E950E2F6E400EC7EC0AF0156E15040F
:10106E00D8B407D0180E376E100E386E8CEC0AF00E
:10107E00FFD7AA0E2B6E010E2C6E000E2D6E000EDB
:10108E002E6E870E2F6E480EC7EC0AF0156E15A445
:10109E0006D01A0E376E100E386E8CEC0AF0000E5B
:1010AE002B6E000E2C6E000E2D6E000E2E6E010E8F
:1010BE002F6E770EC7EC0AF0156E1504D8B407D054
:1010CE00150E376E100E386E8CEC0AF0FFD7000E30
:1010DE002B6E000E2C6E000E2D6E400E2E6E010E1F
:1010EE002F6E690EC7EC0AF0156E15A419D00D0EF1
:1010FE00376E100E386E8CEC0AF0010E0DD0000E0D
:10110E002B6E000E2C6E000E2D6E000E2E6EFF0E30
:10111E002F6E410EC7EC0AF0156E1550D8A4EFD7FE
:10112E00000E2B6E020E2C6E000E2D6E000E2E6E0D
:10113E00010E2F6E500EC7EC0AF0156E1550D8B476
:10114E0012000D0E376E100E386E8CEC0AF0FFD7B3
:10115E009B8E9B9CD38CD38AD3989390000E966EC5
:10116E00949282826DEC0BF03CEC0AF0BDEC0CF02C
:10117E00AFEC0CF0A0EC0CF056EC0CF0E6EC0CF036
:10118E00D9EC0CF0960ECBEC0CF0060E8FEC0CF0AE
:10119E00020E2A6EEE0E296ECEEC0BF0010E2A6EAA
:1011AE00F40E296E90EC0BF0010E376E100E386EA9
:1011BE008CEC0AF0000E3E6E000E3D6E3EBE06D06A
:1011CE003E500FE10F0E3D5CD8B00BD03DC029F064
:1011DE003EC02AF03DC02BF06AEC0CF03D4A3E2A90
:1011EE00EDD7000E2A6E0E0E296EFFEC0CF03C6E43
:1011FE003C500B6E0C6A0FEC08F0000E2B6E000EBE
:10120E002C6E000E2D6E000E2E6E600E2F6E000ECA
:10121E00306ECAEC09F0000EF5EC0AF029C00DF0A4
:10122E002AC00EF0010EF5EC0AF029C00FF02AC00C
:10123E0010F081B002D0818001D08190530E1BEC52
:10124E000DF04E0E15EC0DF0F3EC0CF0FA0E00F066
:10125E00E82EFDD7550E7DEC0CF0FA0E00F0E82EC0
:10126E00FDD721EC0DF0FA0E00F0E82EFDD70A0E98
:10127E008FEC0CF0D0D7336E020E3118D8A406D0F6
:10128E00000E2D6E010E23EC0BF005D0010E2D6E0F
:10129E00010E23EC0BF0010E2D6E020E23EC0BF063
:1012AE003350F00B146E1444010B2D6E060E23EC0E
:1012BE000BF01444E846030B010B2D6E050E23ECC8
:1012CE000BF01438E842070B010B2D6E040E23ECC5
:1012DE000BF014380F0B010B2D6E030E23EC0BF0DD
:1012EE00060E326E300EE82EFED7322EFCD700D010
:1012FE00000E2D6E020E23EC0BF0060E326E300E2B
:10130E00E82EFED7322EFCD700D0010E2D6E020E27
:10131E0023EC0BF033C032F00F0E32163238F00BD6
:10132E00146E1444010B2D6E060E23EC0BF01444B8
:10133E00E846030B010B2D6E050E23EC0BF0143853
:10134E00E842070B010B2D6E040E23EC0BF0143844
:10135E000F0B010B2D6E030E23EC0BF0060E326EEF
:10136E00300EE82EFED7322EFCD700D0000E2D6E9A
:10137E00020E23EC0BF00D0E326EFC0EE82EFED795
:10138E00322EFCD712008292510E0BEC0DF02E5025
:10139E000BEC0DF02D500BEC0DF02C500BEC0DF06A
:1013AE002B500BEC0DF0FF0E0BEC0DF0000E326E11
:1013BE00000E316E32BE06D032500EE10B0E315C95
:1013CE00D8B00AD0FF0E0BEC0DF0156E1550D8B438
:1013DE0003D0314A322AEED71550D8A444D0000E8D
:1013EE00346E000E336E34BE06D0100E335C270EF4
:1013FE003458D8B00BD00F0E0BEC0DF0156EFE0E50
:10140E001518D8B403D0334A342AEDD7FE0E15186A
:10141E00D8A429D0000E366E000E356E36BE04D01E
:10142E00020E365CD8B019D0FF0E0BEC0DF0156E17
:10143E0036BE06D036500EE1400E355CD8B00AD01E
:10144E0035502F24D96E36503020DA6E15C0DFFF9E
:10145E00540E196E354A362AE1D7FF0E0BEC0DF0FD
:10146E00FF0E0BEC0DF082821200000E2D6E010E9F
:10147E0023EC0BF0000E2D6E020E23EC0BF0020E81
:10148E00316E020E42EC09F00D0E376EFC0EE82E98
:10149E00FED7372EFCD7020E316E280E42EC09F025
:1014AE000D0E376EFC0EE82EFED7372EFCD7020E31
:1014BE00316E060E42EC09F0030E376E980EE82ED2
:1014CE00FED7372EFCD7020E316E0C0E42EC09F011
:1014DE00030E376E980EE82EFED7372EFCD740EC53
:1014EE000CF0030E376E980EE82EFED7372EFCD773
:1014FE00020E316E800E42EC09F00D0E376EFC0EB0
:10150E00E82EFED7372EFCD71200FA0E00F0E82E8A
:10151E00FDD719D037C0F6FF38C0F7FF000EF86EB2
:10152E000F0EF76403D00800F55005D0F6CFE9FF93
:10153E00F7CFEAFFEF5026EC0CF0374A382AFA0EB6
:10154E0000F0E82EFDD737C0F6FF38C0F7FF000ECB
:10155E00F86E0F0EF76403D00800F55005D0F6CFE5
:10156E00E9FFF7CFEAFFEF500009D8A4D3D7040E56
:10157E00396EE40EE82EFED7392EFCD700D01200BD
:10158E00306E000E316E829230500BEC0DF02E50FC
:10159E000BEC0DF02D500BEC0DF02C500BEC0DF068
:1015AE002B500BEC0DF02F500BEC0DF0FF0E0BEC47
:1015BE000DF0316E3128D8B4F9D7000E326E040E0C
:1015CE00326401D005D0FF0E0BEC0DF0322AF7D7A6
:1015DE000A0ECBEC0CF08282315012002F6EC2CF6D
:1015EE002BF0030E2B162F44E846FC0B2B10C26E6D
:1015FE00040E2B6EE40EE82EFED72B2EFCD700D059
:10160E00C282C2B2FED7C350C4CF2BF02C6A2BC0FD
:10161E002CF02B6A2B102D6E2C502E6E9E9C040ED1
:10162E002B6EE40EE82EFED72B2EFCD700D02DC04D
:10163E0029F02EC02AF01200306E2D50010B2D6EA7
:10164E002D50D8B40DD030C02EF0010E2F6E2E2A94
:10165E0002D0D8902F362E2EFCD72F5016120DD02A
:10166E0030C02EF0010E2F6E2E2A02D0D8902F36BB
:10167E002E2EFCD72F50FF0A1616165048EC0BF0E4
:10168E0012002B6E070E2C6E2CBE19D02CC029F01A
:10169E002BC02AF0292A02D0D8902A32292EFCD724
:1016AE002A30D8A002D0848801D0849800F0848695
:1016BE0000F000D0849600F000D02C06E5D7848A86
:1016CE0000F000D0849A00F000D012009280928236
:1016DE00C29AC298C296C294C08EC084C082C09074
:1016EE00C08AC088C096C190C192C194C196C19A59
:1016FE00C198140E296E7A0EE82EFED7292EFCD72D
:10170E00C280140E296E7A0EE82EFED7292EFCD733
:10171E001200769429C02BF02AC02CF02C342C32D7
:10172E002B322C342C322B322B50716E2A342A3021
:10173E002C6E29302B6E2B30D8A002D0708A01D09F
:10174E00709A29A002D0708801D070987684120009
:10175E00CA9429C02BF02AC02CF02C342C322B32F8
:10176E002C342C322B322B50B86E2A342A302C6E5D
:10177E0029302B6E2B30D8A002D0B78A01D0B79A61
:10178E0029A002D0B78801D0B798CA841200CA9493
:10179E0029C02BF02AC02CF02C342C322B322C34B6
:1017AE002C322B322B50746E2A342A302C6E293068
:1017BE002B6E2B30D8A002D0738A01D0739A29A039
:1017CE0002D0738801D07398CA84120000EE60F0C4
:1017DE00400EEE6AE806FDE100EE01F0280EEE6A1C
:1017EE00E806FDE14C0EF66E1A0EF76E000EF86E60
:1017FE000900F5CF3FF00900F5CF40F0000EF86E6E
:10180E000001AFEF08F0356E35C040F034C03FF048
:10181E003504D8A408D0020E316E34040F0B800F9D
:10182E0042EC09F007D0020E316E34040F0BC00FDC
:10183E0042EC09F0FA0E00F0E82EFDD71200366EDB
:10184E00010E316E365042EC09F03F2A110E3F1850
:10185E00D8A41200010E3F6E402A030E4018D8A4E1
:10186E0002D0010E406E3FC034F040500AEC0CF036
:10187E001200010E406E010E3F6E020E316E010E11
:10188E0042EC09F0030E366E980EE82EFED7362E79
:10189E00FCD73FC034F040500AEC0CF01200949686
:1018AE009488949AC79EC78CC698C696C694C682CC
:1018BE00C6900D0E296EFC0EE82EFED7292EFCD7F3
:1018CE00C68A9E9612002BC0A8FFA69EA69C2A50E2
:1018DE00AA6E29C0A9FFA684550EA76EAA0EA76EE2
:1018EE00A682A6B2FED7A198A6941200296EA49E37
:1018FE0029C066FF64A006D0FDD71E2AC80E1E188A
:10190E00D8B402D0A4AEF9D7A49E000E1E6E12005B
:10191E002A6E000E2B6E08D0820E296EDE0EE82E79
:10192E00FED7292EFCD72B2A2A502B18D8B41200FA
:10193E00F3D7958A958C6386639463926390648ED5
:10194E00090E656E638AA49E050ECBEC0CF0120098
:10195E009898F90E776E7692768070867084010E66
:10196E002A6EF40E296EAFEC0BF012009896F90E5B
:10197E00CB6ECA92CA8073867384010E2A6EF40EE1
:10198E00296ECEEC0BF01200296E000E2A6E05D0D9
:10199E00FA0E00F0E82EFDD72A2A29502A18D8B4BC
:1019AE001200F6D7988498926C986C846C8A7C9608
:1019BE00190E6F6E6B886B8EA4986E501200948EFB
:1019CE00949CAC98AC84AC8A7E96190EAF6EAB88A4
:1019DE00AB8E9E98AE501200628062B0FED7A49E6F
:1019EE00030E296E980EE82EFED7292EFCD7120074
:1019FE00A69EA69C2A50AA6E29C0A9FFA680A6B0B4
:101A0E00FED7A198A85012002A6E2AC0C9FF000E58
:101A1E00296EC7A0FED79E96C9501200296EA4A8A3
:101A2E00FED729C06DFF1200296E9EA8FED729C0D1
:101A3E00ADFF1200628462B4FED7A49E12000101B3
:020000040020DA
:08000000FFFFFFFFFFFFFFFF00
:020000040030CA
:0E000000FF88191EF30380FFFFC0FFE0FF40E2
:00000001FF
