:060000000A128A11202DF6
:100A300064008001840A0406031900340406192D99
:100A4000F901FA01FB01FC01FD018313423084002E
:100A50005A300A128A1118250A128A11A03084000D
:100A6000D2300A128A1118250A128A1183010A1239
:100A70008A113A2D01308316031386008312031363
:100A80008601831603138701831203138701482D00
:100A900083120313061C4D2D4E2D482D0A128A1168
:100AA0007A250A128A11482D482D482D0A128A11DA
:100AB0000028F1000430F0007008F2005330F0001C
:100AC0007008F300642D642D0130F302031D692DBD
:100AD0006A2D642D6B2D0130F202031D702D712DD6
:100AE0005E2D722D0130F102031D772D782D5A2DC8
:100AF000792D0800F901FA01842D0130F907031856
:100B0000FA0A0030FA07842D831203130618892D80
:100B10008A2D7D2D8B2D7A08803AFF0080307F0250
:100B2000031D942D45307902031C972D982D042E1A
:100B30007A08803AFF0080307F02031DA12D4C30DF
:100B400079020318A42DA52D042E8F30F40074080B
:100B5000F500AB2DAB2D0130F502031DB02DB12DED
:100B6000AB2D831203130618B62DB72D042EF701F3
:100B7000F8017808803AFF0080307F02031DC22D03
:100B800008307702031CC52DC62DC82DF52DF52D77
:100B9000F330F4007408F600CE2DCE2D0130F602AD
:100BA000031DD32DD42DCE2DD52D0030831203134C
:100BB00006180130F4007708523E8400740883134D
:100BC00080000130F7070318F80A0030F8077808AA
:100BD000803AFF0080307F02031DF02D083077023D
:100BE000031CF32DF42DC82DF52D0A128A110526AC
:100BF0000A128A117A0883120313D101D1077908E6
:100C0000D001D007042E042E0800831203135808C5
:100C1000A000A1010130FF000310A00DA10DFF0BEA
:100C20000C2E5708A200A3010230FF000310A20DF2
:100C3000A30DFF0B162E5608A400A5010330FF00DC
:100C40000310A40DA50DFF0B202E5508A600A7012B
:100C50000430FF000310A60DA70DFF0B2A2E540829
:100C6000A800A9010530FF000310A80DA90DFF0B76
:100C7000342E5308AA00AB010630FF000310AA0D62
:100C8000AB0DFF0B3E2E28082A07AC0029080318DD
:100C9000290A2B07AD0026082C07AE0027080318E9
:100CA000270A2D07AF0024082E07B00025080318D7
:100CB000250A2F07B10022083007B20023080318C5
:100CC000230A3107B30020083207B40021080318B3
:100CD000210A3307B50059083407CE000030031845
:100CE00001303507CF004E08A0004608A03E840022
:100CF0002008831380000130C6070318C70A00309C
:100D0000C70732304E064F04031D872E882E8E2EC5
:100D1000861407140715871087118E2E16304E067D
:100D20004F04031D942E952E972E023086062130F7
:100D30004E064F04031D9D2E9E2EA02E04308606C7
:100D400034304E064F04031DA62EA72EEB2EBA01FB
:100D5000BB013B08803AFF0080307F02031DB22EAA
:100D600003303A02031CB52EB62EB82EEB2EEB2E16
:100D7000831203138717F330A0002008B600C12E9A
:100D8000C12E0130B602031DC62EC72EC12E8713F9
:100D900013300A128A1159250A128A1101300A12D7
:100DA0008A1159250A128A11013083120313BA07D6
:100DB0000318BB0A0030BB073B08803AFF008030B5
:100DC0007F02031DE52E03303A02031CE82EE92EB4
:100DD000B82EEB2EEB2E3530831203134E064F0444
:100DE000031DF32EF42E382FBC01BD013D08803ABF
:100DF000FF0080307F02031DFF2E03303C02031CE6
:100E0000022F032F052F382F382F83120313871734
:100E10004D30A0002008B7000E2F0E2F0130B70272
:100E2000031D132F142F0E2F871313300A128A114C
:100E300059250A128A1102300A128A1159250A12FA
:100E40008A11013083120313BC070318BD0A003056
:100E5000BD073D08803AFF0080307F02031D322F1E
:100E600003303C02031C352F362F052F382F382F27
:100E70003730831203134E064F04031D402F412FBA
:100E8000462F0710071187148715462F62304E062C
:100E90004F04031D4C2F4D2F512F861007100711A3
:100EA000512F64304E064F040319572F582F602FCF
:100EB00065304E064F04031D5E2F5F2FA42F602F59
:100EC000BE01BF013F08803AFF0080307F02031D52
:100ED0006B2F04303E02031C6E2F6F2F712FA42F37
:100EE000A42F8312031387179B30A0002008B8009B
:100EF0007A2F7A2F0130B802031D7F2F802F7A2F8F
:100F0000871313300A128A1159250A128A110130E7
:100F10000A128A1159250A128A1101308312031309
:100F2000BE070318BF0A0030BF073F08803AFF0022
:100F300080307F02031D9E2F04303E02031CA12F30
:100F4000A22F712FA42FA42F6530831203134E06F6
:100F50004F04031DAC2FAD2FF12FC001C10141087B
:100F6000803AFF0080307F02031DB82F043040021A
:100F7000031CBB2FBC2FBE2FF12FF12F83120313A5
:100F800087179B30A0002008B900C72FC72F01305A
:100F9000B902031DCC2FCD2FC72F871313300A1290
:100FA0008A1159250A128A1101300A128A1159250B
:100FB0000A128A11013083120313C0070318C10AF1
:100FC0000030C1074108803AFF0080307F02031DD6
:100FD000EB2F04304002031CEE2FEF2FBE2FF12F1A
:100FE000F12F6730831203134E064F04031DF92FB0
:100FF000FA2FFF2F0710071187108711FF2F080006
:00000001FF
