:040000006EEF11F09E
:10080000BE0808083C08660834034D006900630010
:1008100072006F00630068006900700020005400DF
:100820006500630068006E006F006C006F00670079
:100830007900200049006E0063002E002A03550055
:100840007A0061006B00740061006E0020004B00B4
:1008500075006D0061006E00640061000000000022
:1008600000000000000009022900010100C0320957
:100870000400000203000000092111010001221DF3
:100880000007058103400001070501034000010640
:1008900000FF0901A10119012940150026FF00757B
:1008A0000895408100190129409100C01201000201
:1008B00000000008D8044200020001020001040305
:1008C00009040000E00E936E000E816E000E946E1F
:1008D000000E956E000E966E000E826E000E836EF8
:1008E000000E846E000E1C6E000E1B6E000E1A6E43
:1008F000000E196E1BEC0EF08EEC07F01F0E2B6431
:1009000001D001D002D001D000D0000E5D6E000EEB
:100910005C6E5D50800A800F400ED8B45C5CD8A03D
:1009200001D001D002D022D021D00401C00E5C241D
:10093000D96EDA6A0401040EDA22000EDF6E0401B9
:10094000800E5C24D96EDA6A0401040EDA22000EED
:10095000DF6E5C4A5D2A5D50800A800F400ED8B47D
:100960005C5CD8A001D001D0E0D700D0536E530E0C
:1009700004010401C16F5350536E610E0401040160
:10098000C26F5350536E690E04010401C36F53507C
:10099000536E6D0E04010401C46F5350000E576E68
:1009A000000E566E00D08EEC07F01F0E2B6401D0A7
:1009B00001D0F9D76DA201D001D002D0F4D7F3D77E
:1009C0001C501B10D8B401D001D00CD01BC0D9FFD3
:1009D0001CC0DAFFDF34E836010B536E5350586EFB
:1009E000596A05D0000E596E000E586E00D059504D
:1009F0005810D8A401D001D0D6D7817E42D175D16C
:100A00002EEC10F02EEC10F02EEC10F035EC0DF07A
:100A1000000E3D6E320E3C6EBDEC0CF066D165D121
:100A20002EEC10F02EEC10F02EEC10F035EC0DF05A
:100A3000000E3D6E340E3C6EBDEC0CF056D12EEC2B
:100A400010F02EEC10F02EEC10F035EC0DF0000E46
:100A50003D6E350E3C6EBDEC0CF047D1818A45D120
:100A60002EEC10F02EEC10F02EEC10F035EC0DF01A
:100A7000000E3D6E370E3C6EBDEC0CF036D1818E13
:100A800034D1819032D12EEC10F02EEC10F02EECFF
:100A900010F035EC0DF0000E3D6E620E3C6EBDECBC
:100AA0000CF023D1819421D12EEC10F02EEC10F01B
:100AB0002EEC10F035EC0DF0000E3D6E640E3C6E29
:100AC000BDEC0CF012D12EEC10F02EEC10F02EEC50
:100AD00010F035EC0DF0000E3D6E650E3C6EBDEC79
:100AE0000CF003D1819A01D12EEC10F02EEC10F015
:100AF0002EEC10F035EC0DF0000E3D6E670E3C6EE6
:100B0000BDEC0CF0F2D0819EF0D0536E470E040184
:100B10000401C06F5350536E650E04010401C16F90
:100B20005350536E630E04010401C26F5350536E51
:100B3000650E04010401C36F5350536E720E04011D
:100B40000401C46F5350536E6C0E04010401C56F51
:100B50005350536E690E04010401C66F5350536E17
:100B6000200E04010401C76F5350536E4B0E040155
:100B70000401C86F5350536E6F0E04010401C96F16
:100B80005350536E6D0E04010401CA6F5350536EDF
:100B9000750E04010401CB6F5350536E740E0401A3
:100BA0000401CC6F5350536E200E04010401CD6F2D
:100BB0005350536E440E04010401CE6F5350536ED4
:100BC000650E04010401CF6F5350536E670E04018C
:100BD0000401D06F5350536E690E04010401D16FAC
:100BE0005350536E6C0E04010401D26F5350536E78
:100BF0002E0E04010401D36F5350536E2E0E0401C8
:100C00000401D46F5350536E2E0E04010401D56FAE
:100C100053501A501910D8B401D001D00CD019C0BB
:100C2000D9FF1AC0DAFFDF34E836010B536E535098
:100C30005A6E5B6A05D0000E5B6E000E5A6E00D0D5
:100C40005B505A10D8A401D001D04FD0536E010E82
:100C5000336E5350546E010E346E54500401040E22
:100C6000366E0401C00E356E556E400E376E55500F
:100C700083EC0EF033C019F034C01AF036D035D002
:100C800034D0040104018051310AD8B42ED0030AB3
:100C9000D8B4B6D6010AD8B428D0070AD8B4C0D67A
:100CA000010AD8B4CCD6030AD8B4D8D6010AD8B42D
:100CB000D7D60F0AD8B4E3D6590AD8B4E2D6030A75
:100CC000D8B4E1D6010AD8B4EDD6070AD8B4ECD628
:100CD000010AD8B4F8D6030AD8B404D7010AD8B4A4
:100CE00003D70F0AD8B40FD710D7536E010E336E47
:100CF0005350546E000E346E54500401040E366E80
:100D00000401800E356E556E400E376E555083ECE3
:100D10000EF033C01BF034C01CF045D644D643D689
:100D200000EF00F06D980CBE01D001D053D004AE9E
:100D300001D001D02DD0376E020E2C6E375020EE30
:100D400001F00F50D9261050DA22000EDF6E0FC0CE
:100D5000D9FF10C0DAFFC80EDF6E20EE01F025507B
:100D6000D9262650DA22080EDF6E20EE02F025503A
:100D7000D9262650DA220501200EDE6E0501050E69
:100D8000DD6E25C0D9FF26C0DAFFC80EDF6EC5D0E4
:100D900020EE01F02550D9262650DA22080EDF6E0B
:100DA00020EE02F02550D9262650DA220501000E49
:100DB000DE6E0501050EDD6E25C0D9FF26C0DAFF07
:100DC0008C0EDF6E0FC0D9FF10C0DAFF840EDF6E0D
:100DD000A4D0A3D004BE01D001D09FD0050105014D
:100DE00000AF01D001D06AD020EE0DF0050115EE64
:100DF00006F0E652DE52DD50E55C02E1DF50E75CD2
:100E0000D8B001D001D005D006C50DF007C50EF051
:100E100000D08AEC0AF0376E010E2C6E375020EEAF
:100E200001F02550D9262650DA22080EDF6E20EE7A
:100E300002F02550D9262650DA220501000EDE6E7A
:100E40000501050EDD6E25C0D9FF26C0DAFF800E34
:100E5000DF6E376E000E296E375020EE01F0235002
:100E6000D9262450DA22080EDF6E20EE02F023503D
:100E7000D9262450DA220501000EDE6E0501050E8A
:100E8000DD6E23C0D9FF24C0DAFF840EDF6E376E1B
:100E9000010E296E375020EE02F00F50D926105067
:100EA000DA220501200EDE6E0501050EDD6E0FC093
:100EB000D9FF10C0DAFFC80EDF6E2FD0376E020EDA
:100EC0002C6E375020EE01F00F50D9261050DA2248
:100ED000000EDF6E0FC0D9FF10C0DAFFC80EDF6E44
:100EE00020EE01F02550D9262650DA22080EDF6EBA
:100EF00020EE02F02550D9262650DA220501200ED8
:100F0000DE6E0501050EDD6E25C0D9FF26C0DAFFB5
:100F1000C80EDF6E02D001D000D012000BD0000E40
:100F20006D6E000E696E516E000E2B6E5150A19ABF
:100F3000EED0EDD02B6601D001D016D0000E6D6E34
:100F4000000E696E120E6F6E9F0E6B6E7B0E696ED9
:100F500001D06D866DA601D001D0FBD700D0516EB7
:100F6000010E2B6E515000D02B04D8A401D001D01B
:100F700010D06DBA01D001D00CD0000E686E000EFA
:100F8000696E69806988516E020E2B6E515001D0D6
:100F900000D068A401D001D008D069A401D001D04C
:100FA00004D06894F6EC11F000D06DA201D001D00D
:100FB00002D0A19AACD068A001D001D021D069A004
:100FC00001D001D01DD01BEC0EF0516E040E2B6E23
:100FD00051500501050E04010401036F0501000EC7
:100FE0000401026F080E04010401016F000E0401E8
:100FF0000401006F8C0E040104010013689000D0FE
:1010000068A801D001D008D069A801D001D004D0CF
:101010000FEC12F0689800D068AC01D001D014D069
:1010200069AC01D001D010D0000E446E730E436E37
:10103000000E466E000E456E000E486E010E476EA5
:10104000EBEC0FF0689C00D068AA01D001D007D06B
:1010500069AA01D001D003D0BBEC11F000D068A286
:1010600001D001D015D069A201D001D011D07F0EDE
:10107000446EFF0E436E000E466E000E456E000E6F
:10108000486E010E476EEBEC0FF0000E6A6E00D05A
:10109000040E2B6001D001D002D0A19A38D069A6ED
:1010A00001D001D033D0516E000E526E5150030E5C
:1010B000526401D001D002D029D028D068A601D036
:1010C00001D024D06CCF30F068963050780BD8A483
:1010D00001D001D003D03CEC0CF011D0000E446ED6
:1010E000720E436E000E466E300E456E000E486E58
:1010F000000E476EEBEC0FF002D001D007D0522A61
:10110000030E526401D001D0D9D700D0A19A1200A9
:10111000050105010205D8A401D001D01DD00501AB
:10112000050100511F0B0009D8A401D001D014D033
:101130000C8E050105010151030AD8A401D001D08C
:1011400005D0336E010E2A6E335006D0336E000E7A
:101150002A6E335001D000D005010501026701D08D
:1011600001D087D00501050100511F0B020AD8A448
:1011700001D001D07ED00501050104510F0B0009FB
:10118000D8B401D001D075D00C8E0501050104BF83
:1011900001D001D010D00501050104510F0B020D43
:1011A000130EF324D96EDA6A000EDA22DECF37F09E
:1011B000DDCF38F010D00501050104510F0B020DF1
:1011C0000F0EF324D96EDA6A000EDA22DECF37F082
:1011D000DDCF38F000D0050105010151030AD8A484
:1011E00001D001D007D037C0D9FF38C0DAFF840E54
:1011F000DF6E3FD00501050104510F0B010D700E8C
:10120000336E0F0E346EF3503326000E342233C08B
:1012100035F034C036F035C0D9FF36C0DAFFFE0EE7
:10122000DE16FF0EDD160501050104AF01D001D069
:101230000FD037C0D9FF38C0DAFF000EDF6E040EC2
:10124000371A37C0D9FF38C0DAFF400EDF6E11D031
:1012500037C0D9FF38C0DAFF880EDF6E040E371AA8
:1012600037C0D9FF38C0DAFFC80EDF6E02D001D018
:1012700000D012000501050100511F0B336E33042D
:10128000D8B401D001D002D09DD09CD00501050179
:101290000451D8B401D001D002D094D093D005012C
:1012A00005010151060AD8A401D001D03CD02DD0AF
:1012B0002CD02E04D8A401D001D035D0080E0A6E4F
:1012C000780E096E000E0E6E090E0D6E336EC00E96
:1012D0000C6E335028D027D02E04D8A401D001D0D2
:1012E00022D0080E0A6E8F0E096E000E0E6E1D0EB5
:1012F0000D6E336EC00E0C6E335015D014D0336E9D
:10130000800E0C6E33500FD00ED005010501035135
:10131000210AD8B4CED7030AD8B4DED7010AD8B48C
:10132000EED701D000D0050105010039E832030BEA
:10133000336E3304D8B401D001D02ED043D042D084
:101340002BD040D03FD0000E0A6E320E096E000E38
:101350000E6E010E0D6E336EC10E0C6E335032D018
:10136000336E800E0C6E335003C532F02BD0000E5E
:101370000A6E310E096E000E0E6E010E0D6E336E8A
:10138000810E0C6E33501ED0336E800E0C6E3350B7
:1013900002C531F017D016D0050105010151010A2F
:1013A000D8B410D0030AD8B4CED7010AD8B4DFD746
:1013B0000A0AD8B407D0030AD8B4D2D7010AD8B4DD
:1013C000E3D700D0120020EE01F02350D92624509C
:1013D000DA22DF50366E3650055C000E0658D8B063
:1013E00001D001D003D005C036F00ED03650336E98
:1013F000346A331E341E334A342A05503324056EB2
:1014000006503420066E00D0336E000E356E335019
:1014100015D03550010D0501200EF324D96EDA6A7E
:101420000501050EDA22DF5001C0F6FF02C0F7FF0A
:10143000F56E0C00014A022A352A00D03650355C80
:10144000D8A001D001D0E5D700D006500510D8B4FF
:1014500001D001D02DD020EE01F02550D926265004
:10146000DA22080EDF6E20EE02F02550D926265033
:10147000DA220501200EDE6E0501050EDD6E23C0A9
:10148000D9FF24C0DAFFDF50336E33BC01D001D066
:1014900007D025C0D9FF26C0DAFFC80EDF6E39D0CD
:1014A00025C0D9FF26C0DAFF880EDF6E32D031D0DA
:1014B00020EE01F02550D9262650DA22080EDF6EE4
:1014C00020EE02F02550D9262650DA220501000E22
:1014D000DE6E0501050EDD6E25C0D9FF26C0DAFFE0
:1014E000840EDF6E08500710D8B401D001D00FD0A1
:1014F00020EE07F001D80AD00500FA6EDE50FD6E2E
:10150000DE50FE6EF850FF6EFA50120000D0049EBE
:1015100000D01200080E0D5C000E0E58D8B001D09D
:1015200001D019D00DC035F00EC036F02D6601D0B7
:1015300001D005D0336E010E2D6E335011D02D0425
:10154000D8A401D001D00CD0336E020E2D6E3350D2
:1015500007D006D005D0000E366E080E356E00D0CE
:101560000FC0D9FF10C0DAFFFD0EDF160FC0D9FF84
:1015700010C0DAFFFE0EDF160FC0D9FF10C0DAFF71
:101580003650DF1220EE01F00F50D9261050DA222B
:1015900035C0DFFF35C033F036C034F0331E341EA3
:1015A000334A342A0D5033240D6E0E5034200E6E03
:1015B0000501050E286E0501200E276E0CB001D026
:1015C00001D045D01ED01DD009C0F6FF0AC0F7FFDC
:1015D000F86A27C0E1FF28C0E2FF070EF76403D0D6
:1015E0000800F55005D0F6CFD9FFF7CFDAFFDF506E
:1015F000E76E094A0A2A274A282A3506D8A036065D
:1016000000D036503510D8A401D001D0DDD727D076
:1016100026D01DD009C0F6FF0AC0F7FFF86A27C020
:10162000E1FF28C0E2FF070EF76403D00800F55081
:1016300005D0F6CFD9FFF7CFDAFFDF50E76E094AC2
:101640000A2A274A282A3506D8A0360600D036505E
:101650003510D8A401D001D0DDD701D000D01200C0
:10166000050105010051800AD8A401D001D080D025
:10167000336EC00E0C6E33506DD0080E0A6EAC0E79
:10168000096E000E0E6E120E0D6E72D00501050170
:101690000251020D060EF324F66EF76A080EF722C9
:1016A0000900F5CF09F00A00F5CF0AF0020E09246F
:1016B000336E000E0A20346E33C0F6FF34C0F7FFDD
:1016C000F86A070EF76407D00900F5CF0DF009009E
:1016D000F5CF0EF008D0F6CFE1FFF7CFE2FFE6CF6F
:1016E0000DF0E6CF0EF044D0030E050105010261B6
:1016F00001D001D023D0050105010251020D000ED9
:10170000F324F66EF76A080EF7220900F5CF09F008
:101710000A00F5CF0AF00950F66EE16E070EE26E90
:101720000A50E26403D0E26EE75003D0F76E08007F
:10173000F550336E33500D6E0E6A1AD0336E000EB4
:101740000C6E335015D014D0336E000E0C6E335027
:101750000FD00ED0050105010351010AD8B48DD771
:10176000030AD8B493D7010AD8B4BED7EDD700D0B6
:101770001200050105010039E832030B0009D8B455
:1017800001D001D053D077D076D050D00C8E4C6E93
:10179000080E2B6E4C506FD030EC0BF06CD06DEC13
:1017A00010F069D0000E0A6E2E0E096E0C804C6E81
:1017B000010E0D6E4C500C8E5ED0AAEC0DF05BD07D
:1017C00000D088EC08F057D0050105010451010D47
:1017D0002F0EF324096E0A6A000E0A220C804C6E4A
:1017E000010E0D6E4C500C8E46D00C8E050105017D
:1017F0000451010D2F0EF324D96EDA6A000EDA229D
:10180000050102C5DFFF37D0000E446E020E436EA5
:10181000000E466E000E456E000E486E000E476EBE
:10182000EBEC0FF028D027D026D025D005010501FC
:101830000151000AD8B4C1D7010AD8B4C2D7020AEC
:10184000D8B4BFD7060AD8B4A1D7030AD8B4A4D74E
:10185000010AD8B4D9D70F0AD8B4A4D7010AD8B48A
:101860009ED7030AD8B4B0D7010AD8B4BED7070AA6
:10187000D8B401D000D012003050FD0BD8A401D054
:1018800001D06FD0D89030303F0B040D0401000E12
:10189000F324236E246A0401040E242223C025F0BD
:1018A00024C026F0040E251A23C0D9FF24C0DAFF75
:1018B000DF30E8320F0B0D0AD8A401D001D04DD093
:1018C000200E4E6E050E4F6E20EE02F02350D926EC
:1018D0002450DA22DE524F50DD184EC0E8FFD8B453
:1018E000DF18D8A401D001D035D020EE02F023506B
:1018F000D9262450DA220501000EDE6E0501050E00
:10190000DD6E4E6E000E506E4E50070E506401D0CC
:1019100001D002D01FD01ED05050010D0501200E65
:10192000F324D96EDA6A0501050EDA225050010D52
:101930000501000EF324E16EE26A0501050EE222C4
:10194000DFCFE7FF502A070E506401D001D0E4D763
:1019500001D000D0A9EC10F00FD0DDEC10F00CD0CD
:101960000BD03050FD0B040AD8A401D001D004D014
:101970003FEC0FF001D000D01200000E226E000EDE
:10198000216E25D0215000083E6E070E3E26000134
:101990007B0E3E24D96EDA6A0001000EDA223C503A
:1019A000010BDF6E3CC033F03DC034F0000E366EEC
:1019B000020E356EE1EC0EF033C01FF034C020F0A3
:1019C0001FC03CF020C03DF0214A222A00D0215007
:1019D000080A2210D8A401D001D0D4D78380120ED7
:1019E0003E6E120EE82EFED73E2EFCD700F08390FE
:1019F0000B0E3E6E290EE82EFED73E2EFCD700D0F1
:101A0000000E406E000E3F6E4050800A800F080EA0
:101A1000D8B43F5CD8A001D001D002D024D023D0CC
:101A200000017B0E3F24D96EDA6A0001000EDA2233
:101A3000DF503E6E83503E18FE0B3E18836E200E24
:101A40003E6E290EE82EFED73E2EFCD700D03F4A30
:101A5000402A4050800A800F080ED8B43F5CD8A0BE
:101A600001D001D0DDD783901200000E356E000E3C
:101A7000346E3550800A800F080ED8B4345CD8A07C
:101A800001D001D002D027D026D00001600E34242E
:101A9000D96EDA6A0001000EDA22DF50336ED00E02
:101AA000332683503318FE0B3318836E200E336EAB
:101AB000290EE82EFED7332EFCD700D0344A352A23
:101AC0003550800A800F080ED8B4345CD8A001D0FD
:101AD00001D0DBD700D0000E376E000E366E3750C7
:101AE000800A800F080ED8B4365CD8A001D001D08F
:101AF00002D026D025D00001690E3624D96EDA6ACC
:101B00000001000EDA22DF50336ED00E33268350F0
:101B10003318FE0B3318836E200E336E290EE82E19
:101B2000FED7332EFCD700D0364A372A3750800AEA
:101B3000800F080ED8B4365CD8A001D001D0DBD716
:101B40008390200E336E290EE82EFED7332EFCD75D
:101B500000D01200000E05010501206F000E0501E6
:101B60000501216F49D00C8E05010501208100D0AF
:101B70002A04D8A401D001D04DD00501050120834D
:101B800049D048D00C8E46D00C8E0501050104BF0B
:101B900001D001D010D00501050104510F0B020D39
:101BA000130EF324D96EDA6A000EDA22DECF34F097
:101BB000DDCF35F010D00501050104510F0B020DEA
:101BC0000F0EF324D96EDA6A000EDA22DECF34F07B
:101BD000DDCF35F000D034C0D9FF35C0DAFFDF509B
:101BE000336E33A401D001D015D0010E05010501DB
:101BF000206F10D00FD00ED00501050100511F0B32
:101C0000000AD8B4B0D7010AD8B4BCD7030AD8B4F4
:101C1000BBD700D00CAE01D001D00CD00501050E11
:101C20000A6E0501200E096E0C80336E020E0D6ED9
:101C3000335000D01200000E6A6E000E686E120E55
:101C40006F6E9F0E6B6E7B0E696E6D8C000E6E6EEE
:101C50000F0E346E710E336E000E366E000E356E42
:101C6000000E386E000E376EDCEC11F06D9C3B6E92
:101C7000000E3C6E3B50070E3C6401D001D002D0F8
:101C80001CD01BD03C50040D0401000EF324D96E6F
:101C9000DA6A0401040EDA22000EDE6E000EDE6E39
:101CA000000EDE6E000EDD6EDD52DD523C2A070EA8
:101CB0003C6401D001D0E6D700D0160E706E02D081
:101CC000689600D068B601D001D0FAD700D03B6E3C
:101CD000000E0C6E3B503B6E000E046E3B50000E2F
:101CE000066E000E056E6D980401040E106E040160
:101CF000080E0F6E3B6E000E2E6E3B503B6E000EBC
:101D00002B6E3B5012003450D8B401D001D00DD00E
:101D10003350020D0F0EF324D96EDA6A000EDA2268
:101D2000DECF38F0DDCF39F00DD03350020D130E79
:101D3000F324D96EDA6A000EDA22DECF38F0DDCF76
:101D400039F000D020EE02F03850D9263950DA228E
:101D500035C0DEFF36C0DDFF20EE01F03850D92659
:101D60003950DA2237C0DFFF38C0D9FF39C0DAFF77
:101D7000400EDF1638C0D9FF39C0DAFF880EDF12F7
:101D80003450D8B401D001D00BD03350020D0F0E17
:101D9000F324D96EDA6A000EDA22040EDF1A0BD0B1
:101DA0003350020D130EF324D96EDA6A000EDA22D4
:101DB000040EDF1A00D038C033F039C034F000D040
:101DC0001200376E000E396E375036AE01D001D09A
:101DD00009D0356C361ED8B0362A376E010E396EF2
:101DE000375000D034AE01D001D007D0336C341E50
:101DF000D8B0342A010E391A00D0000E3B6E000E06
:101E00003A6E36503510D8B401D001D028D0376E94
:101E1000010E386E375005D0D89035363636382A10
:101E200000D036AE01D001D0F7D701D000D0D89085
:101E30003A363B363550335C36503458D8A001D052
:101E400001D006D03550335E3650345A3A8000D037
:101E5000D89036323532382EEAD701D000D03950FA
:101E6000D8B401D001D005D03A6C3B1ED8B03B2A83
:101E700000D03AC033F03BC034F000D012000FC0A5
:101E8000D9FF10C0DAFFDF38E832E832010B386ED4
:101E9000040E0F1A2B50080AD8A401D001D012D07A
:101EA00002C56EFF6E50D8B401D001D005D0376E98
:101EB000100E2B6E375006D0376E040E2B6E375037
:101EC00001D000D02C04D8A401D001D02FD020EE16
:101ED00002F00F50D9261050DA220501200EDE6ED6
:101EE0000501050EDD6E8AEC0AF02D50020AD8A419
:101EF00001D001D007D00FC0D9FF10C0DAFF840E87
:101F0000DF6E17D0386601D001D007D00FC0D9FFDF
:101F100010C0DAFFC80EDF6E0CD00FC0D9FF10C0A2
:101F2000DAFF880EDF6E05D004D003D00EEC11F07E
:101F300000D012000401040E396E0401000E386E48
:101F40003450020DF3CF35F03350040DF3503524E7
:101F5000366ED8903636D8903634376E3740E842F1
:101F60003F0B376E3750040DF3503826000E3922E0
:101F700038C0D9FF39C0DAFF7F0EDF16346601D0D2
:101F800001D00DD03350020D130EF324D96EDA6A4E
:101F9000000EDA2238C0DEFF39C0DDFF0DD033502D
:101FA000020D0F0EF324D96EDA6A000EDA2238C061
:101FB000DEFF39C0DDFF00D038C0D9FF39C0DAFFFD
:101FC000BF0EDF1620EE04F03850D9263950DA2241
:101FD000400EDF12120019D098EC11F03ED033EC15
:101FE00012F03BD02FEC12F038D034EC12F035D098
:101FF00035EC12F032D036EC12F02FD032EC12F079
:102000002CD000F02AD029D028D043C049F044C0B9
:102010004AF04A50000AD8B404D07F0AD8B418D085
:102020001CD04950010AD8B4D7D7030AD8B4D7D79F
:10203000010AD8B4D7D7710AD8B4E3D7010AD8B403
:10204000D4D7070AD8B4D7D7010AD8B4D1D705D086
:102050004950FF0AD8B4D2D700D01200000E356E16
:10206000000E346E3550800A800F080ED8B4345CF0
:10207000D8A001D001D002D026D025D00001720E08
:102080003424D96EDA6A0001000EDA22DF50336E92
:10209000D00E332683503318FE0B3318836E200E78
:1020A000336E290EE82EFED7332EFCD700D0344AEB
:1020B000352A3550800A800F080ED8B4345CD8A079
:1020C00001D001D0DBD78390200E336E290EE82E8D
:1020D000FED7332EFCD700D012000C8E0F0E346EBC
:1020E000710E336E000E366E000E356E000E386EB9
:1020F000000E376EDCEC11F0000E346E2F0E336ED6
:10210000000E366E000E356E000E386E010E376E04
:10211000DCEC11F002C52EF02E6601D001D005D006
:102120004B6E100E2B6E4B5013D04B6E200E2B6E41
:102130004B50000E446E010E436E000E466E2E0E86
:10214000456E000E486E010E476EEBEC0FF000D0AE
:1021500012000FC0D9FF10C0DAFFDF504D6E4DAE38
:1021600001D001D007D00FC0D9FF10C0DAFF000E98
:10217000DF6E00D04D6E000E2D6E4D504D6E000E78
:102180002C6E4D50000E0E6E000E0D6E4D6E000E3C
:102190000C6E4D50B9EC0BF0000E446E030E436E06
:1021A000000E466E000E456E000E486E000E476E25
:1021B000EBEC0FF092EC06F012002C50020AD8A4BF
:1021C00001D001D003D0E3EC09F027D00EEC11F0E0
:1021D000296601D001D01BD020EE01F02550D92670
:1021E0002650DA22080EDF6E20EE02F02550D926A6
:1021F0002650DA220501000EDE6E0501050EDD6EA9
:1022000025C0D9FF26C0DAFF8C0EDF6E06D0376EF0
:10221000000E296E375001D000D01200336E000E30
:102220002C6E33500FC0D9FF10C0DAFF000EDF6EE6
:10223000040E0F18346E1050356E34C0D9FF35C0FF
:10224000DAFF000EDF6E04AE01D001D017D00850C7
:102250000710D8B401D001D00FD020EE07F001D87C
:102260000AD00500FA6EDE50FD6EDE50FE6EF850AC
:10227000FF6EFA50120000D0049E00D012003A50B7
:10228000010D700E3C6E0F0E3D6EF3503C26000E9D
:102290003D223CC03EF03DC03FF03EC0D9FF3FC0B4
:1022A000DAFF3BC0DFFF3BA401D001D009D03AC028
:1022B00033F03C6E000E346E3C509AEC0FF000D0C0
:1022C0003BA201D001D009D03AC033F03C6E010EE0
:1022D000346E3C509AEC0FF000D0120000EE7BF010
:1022E000110EEE6AE806FDE100EE01F0320EEE6A34
:1022F000E806FDE1420EF66E240EF76E000EF86E53
:1023000000EE60F010EE1BF00900F5CFEEFFE55097
:10231000E150FAE16E0EF66E240EF76E000EF86EC6
:102320000900F5CF5EF0000EF86E000162EF04F0D8
:10233000406E010E3A6E4050416E1E0E3B6E415093
:102340003FEC11F0406E010E336E4050416E000EB6
:10235000346E41500401040E366E0401800E356E59
:10236000426E400E376E425083EC0EF033C01BF0CD
:1023700034C01CF0120070A001D001D01BD0800E20
:1023800023C0D9FF24C0DAFFDF6201D001D010D012
:10239000840E0FC0D9FF10C0DAFFDF6201D001D078
:1023A00007D023C0D9FF24C0DAFF8C0EDF6E00D027
:1023B000709000D0689A120033C039F034C03AF0FF
:1023C00009D039C0D9FF3AC0DAFF35C0DFFF394A3A
:1023D0003A2A00D03706D8A038063728D8B438288B
:1023E000D8A401D001D0EDD700D01200000E446E69
:1023F000740E436E000E466E000E456E000E486E63
:10240000000E476EEBEC0FF06D92699402D0689469
:1024100000D068B401D001D0FAD700D0120069848E
:1024200068986D82000E446E750E436E000E466E07
:10243000000E456E000E486E000E476EEBEC0FF07E
:102440001200303030303030303000313131313105
:1024500031313100303130313031303100003AEC3F
:1024600009F0120012001200120012001200010006
:020000040030CA
:0400000024023F1E79
:020005008181F7
:00000001FF
