:060000000A128A11122809
:10000800FE00030EF3000408F4000A08F50083124A
:1000180003137F08F6000A128A1115280A128A119A
:10002800B4298B138B10003086180130F1007A0A3E
:100038001F280310F10DFF3E031D1D287108F20053
:100048007208F8040130F1007108FA077A080B3ACF
:10005800031D2F2830289429FA017808F10003108D
:10006800710CF2007208FC007C08F03A031D3D2870
:100078003E284228F9010314F90D92297908031D35
:1000880046280F29F90192290F296130F1007108DA
:10009800FC008030880686296230F1007108FC0077
:1000A80086296330F1007108FC0086296430F1006C
:1000B8007108FC0086296530F1007108FC0086296A
:1000C8006630F1007108FC0086296730F10071087C
:1000D800FC008629F030F1007108FC0086296830A0
:1000E800F1007108FC008629FD30F1007108FC0060
:1000F80086296930F1007108FC0086296A30F10010
:100108007108FC0086296B30F1007108FC00862913
:100118002030F1007108FC0086296C30F10071086C
:10012800FC0086296D30F1007108FC0086296E30CC
:10013800F1007108FC0086296F30F1007108FC009D
:100148008629F630F1007108FC0086297030F1002C
:100158007108FC0086297230F1007108FC008629BC
:100168007330F1007108FC008629FE30F100710837
:10017800FC0086297430F1007108FC00862975306E
:10018800F1007108FC008629FC30F1007108FC00C0
:1001980086297630F1007108FC0086297930F10053
:1001A8007108FC0086297A30F1007108FC00862964
:1001B8003030F1007108FC0086293130F1007108F7
:1001C800FC0086293230F1007108FC0086293330A2
:1001D800F1007108FC0086293430F1007108FC0038
:1001E80086293530F1007108FC0086293630F10087
:1001F8007108FC0086293730F1007108FC00862957
:100208003830F1007108FC0086293930F100710896
:10021800FC00862986297C081A3A0319D728013A4E
:100228000319B428073A031949283D3A03195528F0
:10023800023A03195A28073A03195F280D3A031995
:100248008C28033A0319CD28013A03196428073A80
:100258000319BE28013A0319AF281C3A03199B2831
:10026800033A03195028013A03197328073A031966
:100278006928013A0319D2280F3A03199628013A36
:1002880003198228073A0319C3287D3A0319A528B8
:10029800033A03198728013A03197828073A0319FA
:1002A800A0280F3A03199128073A0319B928013AE7
:1002B8000319AA281F3A03197D28063A03196E283C
:1002C8000F3A0319C828323A0319E128023A0319E8
:1002D800F028073A0319FF281C3A0319DC28023AC8
:1002E8000319E628013A0319F528073A0319FA28E9
:1002F800013A031904290F3A0319EB28073A03199D
:10030800092986297C080A128A11C2210A128A112F
:10031800203083120313860692299229F801942922
:100328007608FF0075088A0074088400730E83003D
:10033800FE0E7E0E0900831603138612861483129E
:100348000313861083160313061401138B100B1660
:1003580088138B170B17B029B0290A128A11122893
:10036800F701F801F901FA01FB01FC01A001A10163
:10037800A201A30183010A128A119F29F000C4294E
:10038800831203130C1EC929CA29C429CB29700852
:0403980099000800C0
:00000001FF
