:040000005BEF7EF044
:10FBCE00C584C5B4FED79E961200C59AC588C5B821
:10FBDE00FED79E961200C580C5B0FED7C7A6FED72B
:10FBEE00C7969E961200C586C7A0FED79EA6FED7C4
:10FBFE009E96C9501200140E1D6E000E1E6E000E43
:10FC0E00B7EC7EF014C00CF015C009F016C00DF064
:10FC1E001200186E000E196E08D00D0E176EFC0E27
:10FC2E00E82EFED7172EFCD7192A1850195CD8B01B
:10FC3E001200F3D7176E9E9617C0C9FFC7A006D045
:10FC4E00FDD7102AC80E1018D8B402D09EA6F9D728
:10FC5E009E96000E106E120017501902F3CF1BF075
:10FC6E00F4CF1CF017501A02F3501C26185019022C
:10FC7E00F3501C261BC017F01CC018F012009486FF
:10FC8E009488C686C694C692C690C78EC79C270E09
:10FC9E00C86EC68A9E96070E176E7D0EE82EFED78C
:10FCAE00172EFCD700F0120000EE01F0160EEE6AD1
:10FCBE00E806FDE1000EF66EFE0EF76E000EF86E13
:10FCCE000CEE41F012EE00F00900F5CFEEFFE5501C
:10FCDE00E150FAE1E250F8E1000176EF7EF0D382D6
:10FCEE00D3909B8ED290070E236E7D0EE82EFED7FC
:10FCFE00232EFCD700F0D38CD39AD3880D0E236E0F
:10FD0E00FC0EE82EFED7232EFCD70D0E236EFC0E16
:10FD1E00E82EFED7232EFCD7640E10EC7EF0070ED5
:10FD2E00236E7D0EE82EFED7232EFCD700F00D0E8F
:10FD3E00236EFC0EE82EFED7232EFCD746EC7EF06B
:10FD4E00640E10EC7EF0140E236E7A0EE82EFED7A3
:10FD5E00232EFCD702EC7EF0640E10EC7EF0FAD768
:10FD6E00206EF2EC7DF0D00E21EC7EF0205021ECD6
:10FD7E007EF0E7EC7DF0F2EC7DF0D10E21EC7EF022
:10FD8E00020E216E2128D8B431D0FAEC7DF0226E0D
:10FD9E002150D8A408D022C01FF00F0E1F162238F3
:10FDAE000F0B030B06D022C01FF00F0E1F162238AA
:10FDBE000F0B0A0DF3501F24226E2150176E186A76
:10FDCE0017BE1806000E1A6E010E196E33EC7EF079
:10FDDE0017501D24D96E18501E20DA6E22C0DFFF78
:10FDEE002150D8A4ECEC7DF02106CCD7E7EC7DF0C9
:10FDFE00120044656E656D656C696B000000000055
:10FE0E0000000000000000000000000000000000E4
:10FE1E0000000000000000000000000000000000D4
:10FE2E0000000000000000000000000000000000C4
:10FE3E0000000000000000000000000000000000B4
:10FE4E0000000000000000000000000000000000A4
:10FE5E000000000000000000000000000000000094
:10FE6E000000000000000000000000000000000084
:10FE7E000000000000000000000000000000000074
:10FE8E000000000000000000000000000000000064
:10FE9E000000000000000000000000000000000054
:10FEAE000000000000000000000000000000000044
:10FEBE000000000000000000000000000000000034
:10FECE000000000000000000000000000000000024
:10FEDE000000000000000000000000000000000014
:10FEEE000000000000000000000000000000000004
:10FEFE0000000000000000000000000000000000F4
:10FF0E0000000000000000000000000000000000E3
:10FF1E0000000000000000000000000000000000D3
:10FF2E0000000000000000000000000000000000C3
:10FF3E0000000000000000000000000000000000B3
:10FF4E0000000000000000000000000000000000A3
:10FF5E000000000000000000000000000000000093
:10FF6E000000000000000000000000000000000083
:10FF7E000000000000000000000000000000000073
:10FF8E000000000000000000000000000000000063
:10FF9E000000000000000000000000000000000053
:10FFAE000000000000000000000000000000000043
:10FFBE000000000000000000000000000000000033
:10FFCE000000000000000000000000000000000023
:10FFDE000000000000000000000000000000000013
:10FFEE000000000000000000000000000000000003
:02FFFE00000001
:020000040020DA
:08000000FFFFFFFFFFFFFFFF00
:020000040030CA
:0E00000011881908FF0F80FF0FC00FE00F409E
:00000001FF
